:020000040000FA
:040000006FD00400B9
:101000006F00D03E00000000000000009020002093
:10101000A4220020A9BDF9F55C23002000000000F7
:10102000000000005C230020902000200000000051
:101030000000000090200020000000009020002010
:101040000000000090200020902000209020002030
:1010500090200020902000205C2B00209020002079
:101060000000000090200020902000209020002010
:1010700090200020C22300209020002090200020FB
:101080009020002090200020902000209020002020
:101090009020002001A04111B7170040985F3AC688
:1010A000945F3247E39CE6FE3245410182800111A4
:1010B00013078008F337078093F787083EC20100C3
:1010C0000100B7170040930570052380B70413068D
:1010D00080FA2380C7040100010083C6B70493F699
:1010E000F60DA385D704238007049246F3A6068055
:1010F0000100010093760502D5CEF336078093F602
:10110000860836C4010001002380B7042380C70489
:1011100001000100B70614007D89558D88C70100C4
:1011200001000100010023800704A246F3A6068007
:101130000100010073370780137787083AC6010062
:1011400001002380B7042380C704010001000100CF
:1011500001003727004093061005A303D7802380A2
:101160000704B247F3A70780010001009307800836
:10117000F3B7078093F787083ECE01000100B71749
:101180000040130770052380E704130780FA2380CB
:10119000E7040100010003C7B70413670708A3852C
:1011A000E70423800704F247F3A70780010001004A
:1011B0000561828093760504BDC6F336078093F6F9
:1011C000860836C8010001002380B7042380C704C5
:1011D00001000100B7061400938606047D89558D31
:1011E00088C7010001000100010023800704C246F6
:1011F000F3A6068001000100733707801377870884
:101200003ACA010001002380B7042380C70401000B
:1012100001003727004093062005A303D7802380D1
:101220000704D24781B773370780137787083ACC12
:10123000010001002380B7042380C70401000100DE
:1012400098471367070C98C723800704E24719BF24
:101250000111814601468145114506CE812C930737
:101260008008F3B7078093F787083EC601000100A6
:10127000B7170040130770052380E704130780FAAF
:101280002380E7040100010003C767041367170008
:101290002383E70423800704B247F3A707800100F4
:1012A0000100F2400561828041118146014681457D
:1012B0001145ED2A13078008F337078093F7870855
:1012C0003EC401000100B7170040130670052380DB
:1012D000C704930680FA2380D70401000100FD555E
:1012E0002396B70223800704A245F3A505800100D9
:1012F000010073370780137787083AC601000100A1
:101300002380C7042380D7040100010003C76704BA
:10131000136717002383E70423800704B247F3A76A
:1013200007800100010001A0BD473305F50201005F
:101330007D1575FD8280411122C426C206C6AA848D
:10134000014463179400B2402244924441018280D8
:1013500005041305803E4204C13F4180DDB7000013
:101360009305000273A04580824573901534924026
:101370002242B2424243D2436244F2440255925561
:101380002256B2564257D2576258F25806499649E9
:10139000264AB64A464BD64B664CF64C065D965DE1
:1013A000265EB65E465FD65F09617300203041114C
:1013B000B7170040985F3AC6945F3247E39CE6FE59
:1013C000324541018280B71700401307000323888C
:1013D000E7028547171700002326F7EE7300203039
:1013E000411122C406C6370400201C408297F5BF75
:1013F0002303048015472303E48001002302A48013
:10140000828083076480E3CE07FE2303048082800A
:1014100083076480E3CE07FE034544808280830710
:101420006480E3CE07FE2302A4808280411126C49B
:101430004AC24EC006C61377F50BAD47AA892E895E
:1014400095446306F70019456537653F8D444E8521
:101450004537FD59FD1463983401B240A244124946
:10146000824941018280135509011375F50F453FEB
:101470002209CDB7011126CC06CEB704080051379A
:101480001545BD37713769372AC6A53F3245937771
:10149000150089EB136515001375F50FF240E24452
:1014A00005618280FD14E9FC0145CDBF397126DC60
:1014B0004ADA4ED852D656D45AD25ED006DE62CE22
:1014C00066CCB7E700E07D5783AA070022C603AACF
:1014D000470023A0E71823A2E718B7170040130717
:1014E00070052380E704130780FA2380E70483C78D
:1014F0004704930B75FFB684E20793FBFB0F854609
:10150000AA892E8B328937240040E187015763FA7C
:1015100076016308D5008946130700026313D500DE
:101520000157D98F93F7F70FB71C00402382FC04B3
:1015300011472303E4801305F00F5D3D094CD135BD
:10154000636D7C11B7050700DA9537870700795579
:1015500063F2E504B3879500636EF702370B08006A
:10156000A94733EB65016399F90689E48144513D4C
:1015700026850DA0DA850945553D05090345F9FF86
:10158000FD14050B693D81C49377FB0FFDF7DD3535
:1015900069FD7D55B7170040130770052380E704E8
:1015A000130780FA2380E70403C74704418B238293
:1015B000E704F250B7E700E023A0571123A2471138
:1015C000E25432445259C259325AA25A125B825BD7
:1015D000724CE24C21618280A5476395F9068569CA
:1015E0001309F00FB3069900B3742B01B694134995
:1015F000F9FFB3749900856B33796901416B938767
:10160000F9FFB3F7270199E363FC340193D949004B
:10161000C147E3E637FF99BF0569C1697D19D9B7AD
:101620001305800D63886901130500026384790145
:1016300013051008CA85DD3B353D21DD4E99B38485
:101640003441D9B7DA852D45D533CA94E30099F2F0
:1016500005097D3BA30FA9FED5BF9387F9FF93F73B
:10166000F70F6361FC0C83C71C0413073008631F6A
:10167000F70437070800636BEB04B3079B00B7065A
:10168000100063F5D704334BEB0089476393F906E9
:101690008980D549E38C04ECDA850945413B110981
:1016A0000327C9FF91472320E48003076480E34EAA
:1016B00007FE23033481FD17EDFBFD14110B81C4DC
:1016C0009377FB0FE9FF7D3371F5E1B5B717004064
:1016D00003C75704B70708001377070219E3B78752
:1016E00007007955E378FBEA33079B00E3FFE7F84F
:1016F00055B58547E382F9F2DA852D45053B938997
:10170000F4FFE38504E6293393F7390091EB832650
:1017100004800327090093074900E39AE6E43E8921
:10172000CE84F1BFB5476396F9001305900BC9311C
:1017300035BDB1471305B00AE38BF9FE99476391B4
:10174000F904B7050800B365BB002D45C5318144D8
:101750008D4BA1497539639674018327048023203A
:10176000F9008504E39834FF8327048013172B01C5
:10177000635507002312F900D5BB2322F900FDB3FE
:101780009D476399F90281451305B0044531BD4475
:101790002320090023220900FD599D3993F7740085
:1017A000CA9703C70700FD14398D2380A700E3966D
:1017B00034FF6DBBA1476392F9046D398144630D19
:1017C0000B008D479304C0036308FB0093040005DE
:1017D00063048B01930440041375C507E30895D88F
:1017E0001945393139390545213126850D390945E4
:1017F0003D314931E31C05D669BB91476399F90036
:1018000013056006F536F53E130590090DB7E38F15
:1018100009D4F154A9BBBD66014717360000130671
:10182000E636938606A685458347060093F7F70FAD
:1018300091C382800507E3F9E6FE9737000023870E
:10184000B734DDB77D166206618693178601E1879E
:1018500063D4070001458280931726003307F50003
:10186000AE9718439C4363E7E7007D16E37FF7FCE0
:101870007D55828005458280FD15E205E18513973F
:101880008501618793F7F50F63480700FD151397EE
:1018900025002A97584365D713851700620561858F
:1018A00082803308B5021C4283A80600B335B50216
:1018B000C29733B50701AE98469585486367B50072
:1018C0006394A50063E3070181480C43C6950CC3EC
:1018D00088C21CC282808147139787016187634356
:1018E000B7008280139727002A97232007008507D7
:1018F000E5B78147014793968701E18663C5B60046
:1019000013351700828093962700AA969442850784
:10191000558FD5B793D755408A07AA979C4305455D
:101920003315B5007D8D828017F3FFDFE702A33BFF
:101930002A84993705C5931725003E940327C4FFD1
:10194000814711EB7D1516053E954205418517F33C
:10195000FFDF6700833B05838507E5B70145C5BF0A
:1019600081471397870161876343C700828013977C
:101970002700B386E50094422A97850714C3D5B79C
:101980007D1662066186014793178601E18763D55C
:10199000070013351700828093172600B306F50061
:1019A000AE9794429C437D16B58F5D8FF1BF8A053B
:1019B000AA9501476363B500828083A6C5FFF11530
:1019C00093D71600D98F9CC11397F601E5B72A83E8
:1019D0000148014701456343D7008280B387050171
:1019E00083A80700B30706019C43C697AA976384A0
:1019F000F80033B517010507B3080301620723A0F8
:101A0000F80061871108C1BF2A830147814701455A
:101A100063C3D70082803388E50083280800330E33
:101A2000E600032E0E003388A8403308C8416384C3
:101A3000080133B508018507B308E300E20723A0D6
:101A40000801E1871107E9B717F3FFDFE702A329D0
:101A50000111B286B2842E86AA850A8575372A843A
:101A6000A6850A85793533348000060413351500C0
:101A7000018D056117F3FFDF6700232917F3FFDFEF
:101A8000E702E3234111AA89AE8A328BB68402C2EF
:101A900002C402C60144131C8401135C8C416349D7
:101AA0009C02939B1400FD1B0549138CF4FFF15C11
:101AB0003304890162046184634D740592478E0486
:101AC000CE9423AEF4FE410117F3FFDF6700A3229B
:101AD00013192400B30B2B01014A93172A00D69740
:101AE00083A50B0088437800340050005D3B050A55
:101AF00093178A01E187F11BE351FCFE92474E994F
:101B000005042320F900A2473EC2B24702C63EC4E4
:101B100059B7131A8901135A8A41131D24009317C8
:101B20008A01E18763CF970092470A044E941CC054
:101B3000A24705091379F90F3EC2B24702C63EC457
:101B400085BFB3079A0313152A00569508417800FC
:101B500034005000050AEA97DA978C439933C1B7ED
:101B6000197106C212C416C61AC81ECA22CC26CEC5
:101B70002AD02ED232D436D63AD83EDA42DC46DEED
:101B8000CAC0CEC2D2C4D6C6DAC8DECAE2CCE6CE5D
:101B9000EAD0EED2F2D4F6D6FAD8FEDA97050000F3
:101BA0009385C5718841E700050092402242B24208
:101BB0004243D2436244F244025592552256B256F1
:101BC0004257D2576258F25806499649264AB64AB1
:101BD000464BD64B664CF64C065D965D265EB65E71
:101BE000465FD65F09617300203000009721002016
:101BF00093814141175100201301C1C017F5FFFF28
:101C000013058540970500209385C53F17160020D2
:101C10001306C6FD63FAC5008322050023A0550004
:101C200011059105E3EAC5FE17A50100130585FB23
:101C300097150020938585FB1716002013068665EF
:101C400063FAC5008322050023A055001105910504
:101C5000E3EAC5FE171500201305C563974500206C
:101C60009385C53E6377B500232005001105E36D1C
:101C7000B5FEFD42739002BC8D4273904280B72244
:101C80000000938282887390023097020020938232
:101C9000623793E232007390523097420000938291
:101CA0002294739012346FC0A435730020303971C0
:101CB00001436EC619A0397141536AC866CA62CC25
:101CC0005ECE19A0397101535AD056D252D44ED695
:101CD0004AD826DA22DC06DE3301614082824111D5
:101CE0004AC026C222C406C68282B24D4101024DBC
:101CF000924C224CB24B4101024B924A224AB249C9
:101D00004101024992442244B240410182803D4354
:101D10002A876373C3029377F700BDEFADE593762F
:101D200006FF3D8ABA960CC34CC30CC74CC741078B
:101D3000E36BD7FE11E28280B306C3408A069702A6
:101D4000000096966780A6002307B700A306B70099
:101D50002306B700A305B7002305B700A304B70007
:101D60002304B700A303B7002303B700A302B700FF
:101D70002302B700A301B7002301B700A300B700F7
:101D80002300B700828093F5F50F93968500D58DDB
:101D900093960501D58D61B79396270097020000B1
:101DA00096968682E78086FA9680C1171D8F3E96AA
:101DB000E374C3F8A5B73367B500FD530D8B79E71E
:101DC000B7877F7F9387F7F710419441B372F6008E
:101DD0003363F600BE92B3E262006397720C63183D
:101DE000D6065041D441B372F6003363F600BE927A
:101DF000B3E262006398720A631BD60410459445EF
:101E0000B372F6003363F600BE92B3E262006391F0
:101E1000720A631ED6025045D445B372F60033638E
:101E2000F600BE92B3E26200639A72086311D602B2
:101E300010499449B372F6003363F600BE92B3E2E0
:101E40006200639372085105D105E30FD6F61317AC
:101E5000060193970601631CF7001357060193D7F9
:101E600006013305F7409375F50F91E982804183B0
:101E7000C1833305F7409375F50F91E182801377A5
:101E8000F70F93F7F70F3305F740828003460500FD
:101E900083C60500050585056313D60065FA33057D
:101EA000D640828011059105E312D6FE014582805D
:101EB0002105A105E31CD6FC014582803105B10551
:101EC000E316D6FC014582804105C105E310D6FC2E
:101ED00001458280B717004003C777051A051377BD
:101EE000E70FA38BE70413974500598D1365350061
:101EF0001375F50FA38CA70403C7A705C18991C566
:101F000013672700238DE70482801377D70FDDBF87
:101F1000B717004003C777051377E70FA38BE704D4
:101F2000130700F8A38DE7043D47238CE70413074C
:101F30005003A38CE70403C7A7051377D70F238D9E
:101F4000E7048280371700408347A70593E717000F
:101F5000230DF7048347A705858BEDFF0355C705C0
:101F6000520551818280B717004003C7E7020D89EF
:101F700041111377C70F498F93068008F3B6068087
:101F800093F6860836C6010001009306700523808B
:101F9000D704930680FA2380D70401000100238729
:101FA000E70223800704B247F3A70780010001007E
:101FB0004101828041112A83014E930E407E130F0E
:101FC0000019930F400663E56E129308001913037E
:101FD0004006B3781503854E0D4FA14F337365024C
:101FE0000D891335150063EFBE121308F6FF79460D
:101FF00072984208135808013307C70213D6170016
:10200000BE0732976146B3F6C60213068070B386E8
:10201000C6023697A166F58F42075D8FB71600405E
:1020200083C7F60293F70708A303F1000346710084
:1020300083C7F60293F70708E394C7FE834771004E
:10204000B716004093F7F70F6388071293078008CD
:10205000F3B7078093F787083EC401000100B71764
:102060000040930670052380D704930680FA2380EE
:10207000D7040100010023AA070383C6170393E6D0
:102080000608A388D70223800704A247F3A7078086
:10209000010001001166B71700407D16D45BC85FD0
:1020A00093854703A98EF18EF5FA93068008F3B65F
:1020B000068093F6860836C6010001009306700577
:1020C0002380D704930680FA2380D70401000100FF
:1020D00098C103C7170313670704A388E702238087
:1020E0000704B247F3A70780010001004101828085
:1020F0007D133368E3039308E016630E080033682A
:10210000F3039308D016630808009378330093B85C
:1021100018009388D81633081E01131E0801135E99
:102120000E0155B56393E503054863860800014831
:10213000630303002A8871087298FD15131E0801B5
:10214000C205135E0E01C18179BD13F8150063F459
:10215000BF007908D5B713381800E5BF83C7F6026A
:1021600093F70708A303F1000346710083C7F60243
:1021700093F70708E394C7FE8347710093F7F70FBF
:10218000F1DFE9B531714AD966CB06DF22DD26DB06
:102190004ED752D556D35AD15ECF62CD6AC96EC7DB
:1021A000AA8C02D8EF00501E2A8993078008F3B743
:1021B000078093F787083EDA01000100B717004057
:1021C000130770052380E704130780FA2380E704D0
:1021D0000100010003C7F7021377770FA387E70217
:1021E00003C7F70213678700A387E702238007046A
:1021F000D257F3A70780010001000545AD3313074F
:1022000080C13347E902116A93070AE89306500236
:10221000BD69930BA004814A014B13048008930409
:1022200070057D1AB347F9023307D7023EC0FD8718
:102230003ECC938709A69309803E3347F7023AC202
:102240007D873AC4334739038549B399990193D9B6
:102250003940B306D702B30B7703B3C6F602B3CB4C
:10226000FB0236C6FD8636C893D6FB4136CEB7464E
:102270000F00938606243349D9028566938606FAB1
:10228000B3969601B389E902130760553309D90261
:1022900093060010B389E9023349D902B3C9F902A0
:1022A0009316390036CA37190040FD8636D0930D93
:1022B000090493D7F9413ED2F336048093F6860899
:1022C00036DC01000100930770052380FD009306B2
:1022D00080FA2380DD00010001008346390593F672
:1022E000860FA309D9048346390593E61600A3098E
:1022F000D90423800D00E256F3A6068001000100F8
:10230000130C80FA116DF336048093F6860836DEDE
:1023100001000100930770052380FD0023808D01DB
:102320000100010083463905216693E60602A309F0
:10233000D90483560905B3E6A6012318D9048356A8
:102340000905D18E2318D90423800D00F256F3A677
:102350000680010001008346390593F60602638B6F
:10236000061803463905218A6DDE0818EF00D005EE
:102370007336048013768608B2C201000100238000
:102380009D0023808D0101000100B717004003C6A6
:1023900037051376F60DA389C70403C63705136600
:1023A0000602A389C704835609052166B3E6A60180
:1023B0002318D90483560905D18E2318D904238004
:1023C0000D009646F3A606800100010083463905FC
:1023D00093F606026387061483463905A18AEDFE4B
:1023E00097000020E78020CBAA8636D497000020F3
:1023F000E78060CAA256E30AD5FE83560905425516
:10240000B3E6A6012318D904EF00C07D8346390541
:10241000A18AEDDE035609058346290582473376F6
:10242000CA00B306DA0293D5F641B296B388F640F5
:10243000E24733B8C6002E983308F840A247B3B637
:1024400016013308D84063C70701631DF80092479F
:1024500063FA1701C247634DF80E63950701B2474F
:1024600063E8F80E894663E7660FF2469315180095
:1024700013D3F8015E8613951800B365B30042D6F6
:1024800046D4EF50B16F3258050B137BFB0F6347F7
:10249000000163120838A258638F0836130815002C
:1024A000B336A800B69513D6F5013298B336C800F6
:1024B000AE9613581800FE06B3E606017336048084
:1024C00013768608B2C60100010023809D00238098
:1024D0008D01010001000356C902B296C206C182F5
:1024E0002316D90223800D00B646F3A6068001000C
:1024F000010011BDF336048093F68608B6C00100D2
:10250000010023809D0023808D010100010083468E
:10251000390593E60602A309D90423800D008646F7
:102520003DB5F336048093F68608B6C40100010079
:1025300023809D0023808D01010001008346390521
:1025400093E60602A309D90423800D00A6469DBD8B
:10255000E30D0BF0F336048093F68608B6C801004D
:102560000100930680FA23809D002380DD00010096
:1025700001008346390593F5FC0F93F6860FA309F6
:10258000D90483463905CD8EA309D90423800D00D3
:10259000C646F3A6068001000100130580FA034633
:1025A0003905930639051D8A63149629733604800C
:1025B00013768608B2CC01000100130680FA23804E
:1025C0009D002380CD000100010003C606001376A4
:1025D000F60D2380C60003C606001366060223809C
:1025E000C600835609051166D18E2318D904835677
:1025F00009052166D18E2318D90423800D00E646F3
:10260000F3A6068001000100130680FA834639050F
:1026100093F606026388062483463905130C3905B0
:10262000A18AFDDA08184D23F336048093F6860854
:10263000B6D001000100930680FA23809D0023801C
:10264000DD000100010083460C00116693F6F60DD3
:102650002300DC0083460C0093E606022300DC0026
:1026600083560905D18E2318D9048356090521669E
:10267000D18E2318D90423800D008656F3A6068038
:1026800001000100130680FA8346390593F606021D
:102690006385062083463905A18AEDFE9700002058
:1026A000E780609F2A8C97000020E780C09EE30CA3
:1026B00085FF8356090511664255D18E2318D9042A
:1026C00015238346390513063905A18AFDDAF33649
:1026D000048093F68608B6D401000100930680FAC0
:1026E00023809D002380DD00010001008346060059
:1026F00093F6F60D2300D60023800D00A656F3A610
:102700000680010001008356090503462905D247CA
:10271000B376DA003306CA021305800C9355F641EE
:102720003696330DF6408257333CD6002E9C333616
:10273000A601330CFC40330CCC4033088503925681
:102740004E86B335A5033305A503C295EF5011435B
:1027500063468001631E0C16630C0D1613061500EC
:102760003335A6002E959356F5013696B335D6002F
:10277000AA959396F50105828585D18E6346B000B2
:10278000639D051A638B061A0356C9021582330529
:10279000D6003336C500B2956348B0006391052476
:1027A0001306F00F637DA622894663F3561593073F
:1027B0008008F3B7078093F78708BED601000100B1
:1027C00037170040930770052300F704930780FA3A
:1027D0002300F704010001008356C70289678117AF
:1027E000D58FC207C1832316F70223000704B6570B
:1027F000F3A7078001000100FA506A54DA544A59DD
:10280000BA592A5A9A5A0A5BFA4B6A4CDA4C4A4D20
:10281000BA4D296182801308F5FF3335A800FD15F4
:102820002E951356F5013298B336C800AA9651B1C9
:10283000F336048093F68608B6CA010001002380AF
:102840009D002380AD000100010083463905CD8E37
:10285000A309D90423800D00D646F3A60680010003
:10286000010035BBF336048093F68608B6CE01002E
:10287000010023809D002380CD00010001008346DC
:10288000390593E60602A309D90423800D00F64614
:10289000F3A606800100010095BBF336048093F691
:1028A0008608B6D20100010023809D002380CD0060
:1028B000010001008346390593E60602A309D90405
:1028C00023800D009656F3A60680010001006DBB23
:1028D0009306F5FF33B5A600FD152E959355F5012A
:1028E000AE96B3B5B600AA951396F501858269B583
:1028F000F336048093F68608B6D8010001009306EB
:1029000080FA23809D002380DD00010001008356B2
:10291000C9020566011693F6F60FD18EC206C18272
:102920002316D90223800D00C656F3A606800100A7
:102930000100850A93FAFA0F41B233E6B60045C2A8
:102940000356C9023305D0403338A000B305B04068
:10295000B385054115826345B000D1E16371A608D6
:10296000894663F0560593078008F3B7078093F70D
:102970008708BEDA01000100B71700401307700591
:102980002380E704130780FA2380E7040100010095
:1029900003D7C7027D8B2396E70223800704D6570F
:1029A00081BDF336048093F68608B6DC0100010091
:1029B000930680FA23809D002380DD000100010042
:1029C0008356C9020566011693F6F60FD18EC2062C
:1029D000C1822316D90223800D00E656B9B79307AA
:1029E0008008F3B7078093F78708BEDE0100010077
:1029F00037170040930770052300F704930780FA08
:102A00002300F704010001000356C7029397560004
:102A1000B297C207C1832316F70223000704F657B3
:102A2000C1BB914763EEB7021777010013078765B3
:102A30008A05BA959C41BA978287B717004003A7C9
:102A4000470B1345F5FF698F23AAE70A03A7070B76
:102A5000698F23A8E70A03A7070A798D23A0A70A8D
:102A60008280B717004083A6470B1347F5FFF98E06
:102A700023AAD70A83A6070B558D23A8A70A83A6E6
:102A8000070A758F23A0E70A8280B717004003A7C3
:102A9000470B498F23AAE70A03A7070B1345F5FF46
:102AA00045BFB717004083A6470B1347F5FF758F47
:102AB00023AAE70A03A7070A598D4DB7B7170040A5
:102AC00003A7470B498FEDB7914763EEB70217771E
:102AD00001001307675C8A05BA959C41BA97828703
:102AE000B717004003A7470D1345F5FF698F23AAC9
:102AF000E70C03A7070D698F23A8E70C03A7070CB2
:102B0000798D23A0A70C8280B717004083A6470DBC
:102B10001347F5FFF98E23AAD70C83A6070D558D11
:102B200023A8A70C83A6070C758F23A0E70C82802F
:102B3000B717004003A7470D498F23AAE70C03A747
:102B4000070D1345F5FF45BFB717004083A6470D96
:102B50001347F5FF758F23AAE70C03A7070C598DC0
:102B60004DB7B717004003A7470D498FEDB7B7170B
:102B7000004003D7A70109C5D98D239DB7008280E6
:102B800093C5F5FFF98DD5BFB717004088474205BB
:102B900041819377050491EB9377F5013755E8016F
:102BA000130505803345F50282809377050C1307E2
:102BB00000046397E7009377F50137459C1CCDB778
:102BC0002165130505D0828037E700E01C4354439C
:102BD000A183E206D58F1CC1FD572320F7182322BD
:102BE000F718828013178500B7E700E023A0E710ED
:102BF000618123A2A7108280B7F700E08847CC4705
:102C00008280814737370040A14663C4C7003285C0
:102C100082800345B740E38EA6FE3385F500034569
:102C2000050085072304A740CDB7970700209387A9
:102C300067629C4317370020130747413E95636E38
:102C4000E500174700201307E79B6368A7001707F5
:102C500000202321A7603E858280FD57EDBF4111F2
:102C600022C406C62A840D372947B307E502B240BD
:102C70008D83B3D7870222449507B3D7E70237374E
:102C80000040C207C1832316F700410182807165AD
:102C900041111305052006C6D937B7370040130781
:102CA00070F82381E7000D47A381E70013070004B4
:102CB000A380E70005472387E700B24041018280F7
:102CC000CC41411106C6328503C6150083C50500F7
:102CD00022064D8E42068D654186138875A2630CCF
:102CE0000611634BC804138845A26300060D634AAE
:102CF000C800938535A26301B608239006002946D3
:102D00004DA0138855A26305060D938565A2E316B1
:102D1000B6FE8D451D4663E6E5081146198E63F340
:102D2000C7003E86B7E704002390C600FC4797958E
:102D30000100938525E59DA0138895A263030611E4
:102D4000634E060D1388A5A263000613938505A59F
:102D5000E315B6FA99451D4663E5E504198E63F35C
:102D6000C7003E86B7E704002390C600FC479705DE
:102D700000209385A54E1DA09D451D4663E3E502F9
:102D80002146198E63F3C7003E86B7E70400FC476F
:102D90002390C600970500209385C54FBA9582976A
:102DA0000146B240328541018280AD451D46E3EACD
:102DB000E5FE3146198E63F3C7003E86B7E704008F
:102DC0002390C600FC47977501009385E52FF9B75E
:102DD000B1451D46E3E7E5FC3546198E63F3C700B0
:102DE0003E86B7E704002390C600FC4797750100B4
:102DF0009385852E65B78D451D46E3E4E5FA1146BA
:102E0000198E63F3C7003E86B7E704002390C6001F
:102E1000FC47979501009385A5D749B78D451D4679
:102E2000E3E1E5F81146198E63F3C7003E86B7E784
:102E300004002390C600FC4797950100938505D7B1
:102E4000B1BFA5451D46E3EEE5F42946198E63F3AF
:102E5000C7003E86B7E704002390C600FC4797757D
:102E600001009385A5251DBFB5451D46E3EBE5F2A1
:102E70003946198E63F3C7003E86B7E704002390F6
:102E8000C600FC47977501009385452201BFB7E74F
:102E9000040003A3071397060020938626DE41460D
:102EA000A54517050020130565D402832D4559EF6C
:102EB00003C5050009476317E50803A8450041114C
:102EC00006C60347180032850346080022074168FA
:102ED000518F930828FE6308170363E9E80005187B
:102EE000630307052390060029451DA8130648FE25
:102EF000630BC7021518E31707FF15463E87637B70
:102F0000F602154705A83E8691C30546B7E70400BB
:102F1000FC472390C6004206CC454182829701457A
:102F2000B240410182801306700F3E876374F60041
:102F30001307700FB7E704002390E600FC47131651
:102F40000701D9BF23900600054582808280416732
:102F500079176304E504411122C406C685472A8413
:102F6000639FF500B7E7040022852244B24003A323
:102F70008713970500209385A53241010283894775
:102F80006399F500B7E7040083A7070B854582978F
:102F900071D9B2402244410182808280797122D469
:102FA00052CC2E842A8A97750100938525151775B2
:102FB00001001305651606D63AC626D24AD0B68455
:102FC00032894ECEEF50D106A68517750100130544
:102FD000A515EF50F1052945EF50D109834784002D
:102FE00093F70702F1E38349040089470545324717
:102FF0006396F908544083C7160083C60600A207EB
:10300000D58FC166138616FE638CC7028D16638F3B
:10301000D7068D669386269029456391D706B7E734
:103020000400A285225403A34714B250F249A68695
:103030004A86925402595285624A85474561028305
:103040002D450DEF9307700F354563E99702B7E7FC
:103050000400FC4748441306700FCA8582978149D3
:1030600097070020938787249C43014581CB9C438D
:1030700091C74E852686CA8582970145B250225453
:1030800092540259F249624A456182802D457DF78A
:10309000D5473545E3E497FEB7E70400FC474844CD
:1030A0005546CA8582976DBF2145C9BF411122C4CB
:1030B00037E404008327841326C2AA84416506C628
:1030C000970500209385C51D7D1582978327C40A27
:1030D000170500001305E5E78588829795C003234F
:1030E00004132244B2409244970600209386C6CA35
:1030F0004146C54517050020130505B94101028366
:10310000B2402244924401454101828019C597078B
:10311000002023ADA71801458280454582801147D4
:103120006368A70A97760100938606FC0A05369520
:103130001841411106C63697AE87B285028713073C
:10314000700F6145639DE700B7E70400FC47130675
:10315000700F170500201305E51C82970145B2404A
:103160004101828005476145E39BE7FEB7E7040024
:10317000FC4705461705002013054512F9BF5547C2
:103180006145E39EE7FCB7E70400FC475546170599
:1031900000201305A528D1B71307700F6145E390F0
:1031A000E7FCB7E70400FC471306700F1705002083
:1031B000130545285DB715476145E392E7FAB7E780
:1031C0000400FC471546170500201305A50D71B72F
:1031D00009458280411126C2B7E4040083A7C413C5
:1031E00022C44AC006C62E84970500209385450B4D
:1031F0002A898297058905C5970700209387C7A864
:1032000083D7A70BA28503A3440D2310F400224407
:10321000B24092444A850249014641010283B240CC
:103220002244924402494945410182809707002087
:10323000238007089707002023AE0706B717004032
:1032400003A7070CB706C0FFFD16758F23A0E70C78
:1032500003A7070DB7064000558F23A8E70C03A767
:10326000070C3D9B23A0E70C03A7070D136707017D
:1032700023A8E70C8280B717004003A5470C83A75B
:10328000470C598113451500C18B058999E31365D6
:1032900025009707002083C7A7016380A70297072F
:1032A00000202387A70011C9970700209387870074
:1032B00003A30700630303000283828011456FE0CC
:1032C0007FEC411193962500AA852D4506C697F0FF
:1032D000FF1FE780A01DB24001454101828001111E
:1032E00022CC06CE3714004026CA4AC84EC652C465
:1032F00083447405034AB40583498405034994054E
:10330000EFE01FC18347A40593F4F40F137AFA0F7B
:1033100093E71700230DF40493F9F90F1379F90FCC
:10332000B717004003C7A705058B6DFF03D5C70579
:10333000A38D4705238C3705A38C2705A38B970402
:10334000F2406244D2444249B249224A0561828035
:1033500041119397050122C406C626C2C1872E8457
:1033600063DC0700B7E40400FC54829719C1BC5425
:1033700082972165218D3DA093F7150013C5150097
:1033800095E393F7250085C7FD35B7E70400BC4FEB
:103390001306000A894517050020034525F2829788
:1033A00013452400B2402244924441018280939705
:1033B000250163D50702B7E4040083A7C41E8297E2
:1033C000F53DBC4C37F60200130606E0896517058B
:1033D00000200345A5EE8297096569BF9397150103
:1033E0000145E3D107FC177501001305A5DAEF507D
:1033F000E158B7E70400BC4F130600649165170558
:1034000000200345A5EB82971165ADB72D71232AE6
:103410009110FD74E98C232C81102328211123267F
:1034200031112A84AE893289930600100A86A68556
:103430002D45232E111097F0FF1FE780200713154D
:103440004401B7E70400FC4751810A05139629009F
:10345000CA850A958297A68585660146254597F017
:10346000FF1FE780A0040A86A68593060010294561
:1034700097F0FF1FE78080038320C111032481118F
:1034800083244111032901118329C1101561828010
:10349000B7F7070003C70701411106C622C426C2B9
:1034A0004AC0A547631AF7009537B24022449244B8
:1034B000024901454101828013942500AA84328982
:1034C000A286AA850146254597F0FF1FE78000FEEA
:1034D000A2864A86A685294597F0FF1FE78000FD52
:1034E000E9B71D71A2CC37E404005C5C485886CE75
:1034F000494697750100938565C5829701E917755F
:1035000001001305E5C5EF50614701A0B7F600E0E3
:10351000795798CAFD57DCCA0567B7E700E023A0D2
:10352000E7101306F00290C223A0E7180100010083
:10353000370700201847130600048145970600202E
:1035400023ACE6D64157A38AE7403C44080882975B
:1035500097170020938787D63EC885671387076033
:10356000231AE1001D673ACC37070105130707103E
:103570003ACE9387B7D31307B00F2310E10223127B
:10358000F102054797F7FFFF938747672301E102A1
:103590003ED817070000130707D39707000093874B
:1035A00047D4B7F50700BAC23EDC1707000013077F
:1035B00067EE970700009387A7D081463000E105AA
:1035C0001945BAC43EDE97F0FF1FE78020EE1808C9
:1035D0008147994630003E96034606008507050759
:1035E000A30BC700E398D7FEC24791C70357410119
:1035F00085676373F70001A0B7E7040083A7470A54
:1036000008088297AA8501C917750100130585B6B8
:10361000EF50012201A0F6406644256182804111ED
:1036200026C2B7E4040083A7040806C622C417050F
:103630000000130525D2829717040020130404C844
:103640002300A4003128DD3603450400224403A3EF
:103650008405B24092441306003289654101028319
:10366000797106D622D413078008F337078093F7C1
:1036700087083EC201000100B7170040930570059E
:103680002380B704130680FA2380C70401000100D9
:1036900083C6F70293F6A60FA387D70223800704F9
:1036A0009246F3A606800100010073370780137766
:1036B00087083AC4010001002380B7042380C704AF
:1036C0000100010003C7F70213672700A387E70281
:1036D00023800704A247F3A70780010001000545E6
:1036E000EFE07F88E13E01478146814705468545F9
:1036F0001305407EEFE01F8C37E404003C44680073
:10370000514681458297B707C0A83EC8B787E803EE
:10371000938707D03ECA97F7FF1F938747C93EC6D6
:103720007C5868008297B2502254456182804111D2
:103730009775010093850512177501001305C59D46
:1037400006C6EF50E10E1775010013056529EF500D
:10375000210EB240294541016F50C11141119775A9
:10376000010093856510177501001305E59A06C6DB
:10377000EF50010C1775010013054525EF50410B63
:10378000B240294541016F50E10E411122C406C6E5
:10379000834705002A849DC3977501009385851290
:1037A0001775010013054597EF5081084C401775B8
:1037B000010013052537EF50A1071DA058411DE753
:1037C0009775010093850510177501001305C594C1
:1037D000EF5001061775010013054536EF504105FE
:1037E0002244B240294541016F50C108A167938628
:1037F000D7036311D702977501009385A50C177540
:10380000010013056591EF50A10217750100130522
:10381000E533E9B7ED07977501009385A50A17759C
:1038200001001305658F6319F700EF5061001775EC
:1038300001001305E5325DB7EF40917F4C401775ED
:1038400001001305E53385BF41119775010093858C
:10385000E502177501001305258C06C6EF40517D62
:10386000B240294541016F50E100797122D426D23E
:103870004AD02E842A898145B2844800714606D6F2
:10388000EFE0EFC897F7FF1F93878770DC4783D778
:103890000700231421012313F100EF200042954774
:1038A000A305F1009307401F3EC6FD572305A10065
:1038B000230AF100EF20A0522686A2854800EF20BF
:1038C000A042B25022549254025945618280411163
:1038D00006C603C781129307F00A631BF70093071C
:1038E000F0088945138581122394F112EF2090642A
:1038F000EF3040178145370504009707002023A3C8
:10390000079E97070020239C079C97070020238988
:10391000079C970700202392079C97070020239D70
:10392000079A97070020239B079A97070020239D5B
:10393000079AEF10107A0145EF3060099775010082
:10394000938545F6176501001305057DEF40516E1F
:103950001775010013050529EF40916DB240294507
:1039600041016F403171411122C406C626C293F74E
:1039700015002E84638D070C814617F6FF1F130672
:10398000A65E8545170500200355C594EF800052BB
:1039900005C5977501009385A5F11765010013050D
:1039A000A577EF40F168177501001305258DEF40ED
:1039B00031682945EF40116C97750100938545EFFB
:1039C0001765010013054575EF40916617750100F5
:1039D0001305058CEF40D1652945EF40B16917F516
:1039E000FF1F1305E55A5C4505472390E700EFE00C
:1039F0005062977501009385A5EB176501001305CB
:103A0000A571EF40F162177501001305A589EF401C
:103A100031622945EF401166930710F82384F112B3
:103A20009707002083D7C78AA384F11213858112D8
:103A3000A18391452385F112A3850112EF20904FB8
:103A400013451400B240224492444101828093F70E
:103A50002500D1CB170700200357678851C397066D
:103A600000209386268894429777010093878719D0
:103A7000170600200346C68681451385C129EF40FD
:103A80002050AA8431CD97750100938525E91765EB
:103A9000010013056568EF40B159A685177501004F
:103AA0001305C581EF40D1582945EF40B15C970718
:103AB000002023960782930710F82384F1129707BA
:103AC000002083D7E780A384F112A1832385F1121C
:103AD00091458D4713858112A385F112EF20904502
:103AE0001345240085B793F74500B1CF97750100C2
:103AF0009385C5E21765010013050562EF40515338
:103B0000176501001305457DEF4091522945EF40AF
:103B10007156930720F82384F11297F7FF1F83D77C
:103B2000C77BA384F112A1832385F1128547A38566
:103B3000F112EF20C02A138581129145EF20903FAA
:103B40001345440001B793F785008DCF97750100A9
:103B50009385C5DC176501001305055CEF40514DE9
:103B60001765010013058578EF40914C2945EF401A
:103B7000715097F7FF1F23940776EF40404D134590
:103B80008400C9B593F70501A5C3854517F5FF1F47
:103B90000355A574EF00111797750100938505D89B
:103BA0001765010013054557EF409148176501005F
:103BB00013050575EF40D1472945EF40B14B9307F9
:103BC00030F82384F11297F7FF1F83D70771A3847E
:103BD000F11213858112A1838D452385F112EF2007
:103BE000703513450401B9BD93F70502B5C3977548
:103BF00001009385A5D2176501001305E551EF403B
:103C00003143176501001305E571EF407142294505
:103C1000EF405146930740F82384F11297F7FF1FB6
:103C200083D7876BA384F112A1832385F112854783
:103C3000A385F11297F7FF1F2390076AEF20201A40
:103C4000138581129145EF20F02E13450402DDBB50
:103C500093F70504CDC797750100938525CC1765AB
:103C600001001305654BEF40B13C176501001305DA
:103C7000E56CEF40F13B2945EF40D13F83C781120E
:103C80001307700A6388E7041307800A6386E70650
:103C90001307600A6397E702930760F82384F11221
:103CA00097F7FF1F83D78763A384F112A18323852E
:103CB000F1128547A389F112B14513858112EF20D6
:103CC0007027EF20C0111345040497F7FF1F2397B7
:103CD00007608DBB930770F82384F11297F7FF1FDD
:103CE00083D7C75FA384F112A1832385F11285478F
:103CF000A386F1129945D1B7930780F8F1BF93F7E6
:103D000005080145E38007D497750100938505C137
:103D10001765010013054540EF409131176501001B
:103D200013054563EF40D1302945EF40B134930787
:103D3000A0F82384F11297F7FF1F83D7E75AA384D3
:103D4000F112A1832385F1128547A385F11297F71C
:103D5000FF1F239B0758EF20800813858112914590
:103D6000EF20501D13450408F1B9411122C4977585
:103D70000100938565B62A84176501001305C539CE
:103D800006C6EF40F12A4C4017750100130505D710
:103D9000EF40112A2945EF40F12D03470400930716
:103DA000F00F6319F702977501009385E5B2176567
:103DB000010013056536EF40B1274C40177501002F
:103DC0001305C5D4EF40D1262244B2402945410114
:103DD0006F40512AB24022444101828085CD411179
:103DE00022C417650100130525332E849775010041
:103DF000938585A906C6EF40B123A28517750100FA
:103E0000130505DCEF40D1222244B240294541018F
:103E10006F4051268280411122C426C22A84AE847A
:103E2000176501001305452F97750100938585A639
:103E300006C6EF40F11F17750100130525D9EF40A5
:103E4000311F2945EF40112397750100938585A403
:103E500097F7FF1F23908748176501001305C52BAF
:103E6000054497F7FF1F2395974697F7FF1F239267
:103E7000874697F7FF1F239D9746EF40711B97F5E5
:103E8000FF1F83D5E546177501001305A5D4EF4044
:103E9000311A2945EF40111E054597F7FF1F23876B
:103EA0008744EF20D03297F7FF1F9387670EDC47D8
:103EB00003D70700C167FD176312F7022244B7E773
:103EC0000400B240924403A3870517F5FF1F034582
:103ED000653F1306000A854541010283B240224432
:103EE000924441018280011122CC37E404005C5CE1
:103EF00006CE26CA3546977501009385A5AF17757E
:103F000001001305252E829701E9176501001305AD
:103F10002525EF40B12601A097F7FF1F9387076182
:103F20003EC4B7F507008567938707C0814617F63B
:103F3000FF1F13066639E10519453EC697E0FF1FCE
:103F4000E780C0567C44194697F5FF1F9385C53717
:103F5000138501238297340017F6FF1F1306C63618
:103F6000977501009385C5DC177501001305C5DD44
:103F7000EF309059AA8415C997750100938505996A
:103F80001765010013054519EF40910AA6851775BD
:103F90000100130525A7EF40B1092945EF40910D18
:103FA000F2406244D24405618280EF9070701775D0
:103FB00001001305259CEF20D074EF60B05EEF0088
:103FC000217D17F5FF1F130565F9EF00016A1775CD
:103FD00001001305259BEF00617DAA84EF30604F3F
:103FE000EFC08022EF20D11CEF40806BEF30B02E6D
:103FF000EFE0607F9775010093854591176501009B
:104000001305851189C8EF40B102A6851775010017
:10401000130585A149B7EF40B101177501001305DC
:10402000E5A2EF40F1002945EF40D104EFE0006246
:10403000EFB0400C5DC9854537050400EF107009ED
:10404000977501009385858C176501001305C50CD4
:10405000EF40017E177501001305C5A0EF40417DBB
:104060002945EF40310197F7FF1F83C71728B9EFA4
:10407000A303010083274417130671008545130528
:104080005030829797750100938545881765010028
:1040900013058508EF40C179177501001305C59E0A
:1040A000EF4001792945EF40E17C97750100938548
:1040B000E5851765010013052506EF406177177543
:1040C0000100130565A2EF40A176C1BD97750100FF
:1040D0009385C5831765010013050504EF404175FD
:1040E000177501001305C59D65BF97750100938580
:1040F000E5811765010013052502EF40617317750F
:104100000100130525AEEF40A1722945EF408176ED
:104110000145EF20D00B51BF411122C437E4040008
:104120008327041A06C68297832704081705000010
:104130001305A583829797F7FF1F2385A71817F507
:10414000FF1F1305E5E4EF107076713B2244B24087
:1041500041016F208039411122C491462A8413867F
:1041600081209D652D4506C697E0FF1FE78000343E
:10417000B7F7070003C70701A5476313F70001A0BE
:104180009306001001469D65254597E0FF1FE780D7
:10419000E031238481202244B2409146138681205D
:1041A0009D652945410117E3FF1F67002330B7E7ED
:1041B00004001171FC47CED793898112A2DDCAD9C0
:1041C00086DFA6DB2E8432892E86AA854E858297CD
:1041D00083C70900130780029387E70793F7F70F58
:1041E0006364F77417670100130707FB8A07BA9720
:1041F0009C43BA9782878D479765010093854573E5
:1042000017650100130545F1630BF400EF404162AF
:104210001765010013058530EF408161FDA2EF4075
:104220002161176501001305E530EF406160294504
:10423000EF404164930720F81146938581124A8527
:104240002384F112A3850112EFF02FE22A840DC519
:10425000976501009385C56D176501001305C5EBD2
:10426000EF40015DA2851765010013056530EF4041
:10427000215C2945EF400160976501009385456BFE
:1042800017650100130545E9EF40815A17650100E4
:104290001305452FEF40C1592945EF40A15D416508
:1042A000930730FA0546938581127D152384F11218
:1042B000EFF0AFDB2A840DC5976501009385456754
:1042C00017650100130545E5EF408156A285176586
:1042D00001001305E529EF40A1552945EF4081591B
:1042E000B7E70400BC4F0566130606C8A14517F5DD
:1042F000FF1F034525FD8297FE506E54DE544E5934
:10430000BE591161828091476301F40297650100F3
:104310009385056217650100130505E0EF404151E3
:104320001765010013054529C5BDB7E70400FC4F1B
:10433000914517F5FF1F0345E5F882979765010042
:104340009385055F17650100130505DDEF40414EBC
:104350001765010013050528EF40814D2945EF4001
:104360006151EF10D0279145E1A285476301F40226
:10437000976501009385C55B176501001305C5D9D5
:10438000EF40014B176501001305452671B597F7FE
:10439000FF1F239427F5B7E704000566BC4F1306FB
:1043A00006C8C145A9B78D476301F40297650100AE
:1043B0009385055817650100130505D6EF40414761
:1043C000176501001305452481BD930740F8114688
:1043D000938581124A852384F112A3850112EFF09F
:1043E000CFC82A84E30A05F09765010093854554F8
:1043F00017650100130545D2EF408143A28517657B
:1044000001001305E516EF40A1422945EF40814622
:10441000E5B59147E31CF4F8B7E70400FC4F9305BA
:10442000000217F5FF1F0345E5E982979765010034
:104430009385055017650100130505CEEF40413FF8
:10444000176501001305C51D01BF894763E1870298
:10445000976501009385C54D176501001305C5CB10
:10446000EF40013D176501001305C51C75B383C4FA
:10447000A11283C79112976501009385654BA20431
:1044800017650100130545C9DD8CEF40613AA2852F
:10449000176501001305451BEF408139C20429450A
:1044A000EF40413DC1849305D4FF93960401C1823E
:1044B0004A8693F5F50F1385B112EF100045E35DC1
:1044C00090E2930750F82384F11283C739002286C3
:1044D0009385811285074A85A385F112EFF0EFB825
:1044E0002A84E30B05E09765010093856544176511
:1044F0000100130565C2EF40A133A28517650100D5
:104500001305056B09B7894763E1870297650100C9
:104510009385054217650100130505C0EF40413141
:104520001765010013050514C5B9EF10500BA285DE
:1045300013858112EF200020C1B38D476301F4027F
:10454000976501009385C53E176501001305C5BC3D
:10455000EF40012E176501001305851275B9B76686
:1045600002000146B7750200054597E0FF1FE7808E
:10457000E0F3930760F82384F112A38501129307F7
:10458000002623A6F112E577938707212398F112DD
:104590003146A389A112938581124A85238901128C
:1045A000EFF0AFAC2A84E30905D497650100938549
:1045B000253817650100130525B6EF406127A28550
:1045C000176501001305450D3DBDB1476301F402B8
:1045D000976501009385C535176501001305C5B3BF
:1045E000EF400125176501001305C50C35B1B7E78C
:1045F0000400FC4F9305000417F5FF1F034585CC0D
:104600008297EF10C07DB14525B7914763E18702DE
:10461000976501009385C531176501001305C5AF86
:10462000EF400121176501001305850AF5B683C423
:10463000C11283C7B112A204DD8C8E04B7670200D9
:104640006D14BE942286A6851765010013058509A1
:10465000EF40011EB7E70400FC4722869385D11284
:104660002800829793160401C1823000A68509456F
:1046700097E0FF1FE78080E32A8419C517650100D2
:1046800013050508EF40812F930770F819469385AD
:1046900081124A852384F112A3868112EFF0EF9CE8
:1046A0002A84E30B05C49765010093856528176587
:1046B0000100130565A6EF40A117A285176501004B
:1046C0001305050589B399476301F4109765010047
:1046D0009385052617650100130505A4EF404115D4
:1046E000176501001305450405BE914763E1870284
:1046F000976501009385C523176501001305C5A1C2
:10470000EF400113176501001305850331B683C41B
:10471000C11283C7B112A204DD8C8E04B7670200F8
:104720006D14BE942286A6851765010013058502C7
:10473000EF400110B7E70400FC4722869385D112B1
:104740002800829793160401C1823000A6850D458A
:1047500097E0FF1FE78080D52A8419C517650100FF
:1047600013050501EF408121930780F819469385D1
:1047700081124A852384F112A3868112EFF0EF8E15
:104780002A84E30B05B6976501009385651A1765C2
:10479000010013056598EF40A109A2851765010086
:1047A000130545FE8DB199476301F4029765010039
:1047B000938505181765010013050596EF4041071D
:1047C00017650100130585FD81BCB7E70400FC4FA8
:1047D0009305000417F5FF1F0345C5AE8297EF1040
:1047E00000609945B1B38D476301F40297650100FC
:1047F000938505141765010013050592EF404103E9
:1048000017650100130505FB01BC176501001305C1
:1048100065FBEF40A1160145EFE00FBB0D45EFF042
:104820009F93294597E0FF1FE780E0B097E0FF1FC7
:10483000E78000A2D1B499476301F40297650100B3
:104840009385050F176501001305058DEF30517E27
:10485000176501001305C5F7C1B203C7D11283C79D
:10486000C11222075D8F9166BA96C2061166C18297
:104870001306F6EF8D476363D60297E7FF1F938712
:1048800027719C4B03C6B1129386C70039C603D665
:1048900007005DCA8907E39CD7FE89471307A0F884
:1048A0001146938581124A852384E112A385F11272
:1048B000EFE0BFFB2A84E30105A49765010093851F
:1048C00025071765010013052585EF307176A28550
:1048D00017650100130505F13DB603D60700630215
:1048E000E60A8907E39BF6FE8D474DBF91476302B9
:1048F000F402976501009385A50317650100130570
:10490000A581EF30F17217650100130525EF6FF0F7
:10491000BF90B7E70400FC4F9305000817F5FF1F91
:104920000345459A829735BC9765010093854500FC
:10493000175501001305457EEF30916F1765010093
:10494000130545ED6FF05F8D2390E70017E5FF1F1E
:1049500013050564EFD0906D97650100938545FDC3
:10496000175501001305457BEF30916C1765010069
:10497000130545EBEF30D16B2945EF30B16F81471F
:1049800031BF2390070017E5FF1F13056560EFD0C7
:10499000F069976501009385A5F917550100130586
:1049A000A577EF30F16817650100130525E9D9B740
:1049B000411122C406C6834705002A849DC397651A
:1049C00001009385A5F2175501001305E574EF303A
:1049D00031664C40176501001305C523EF30516562
:1049E00079A85841B707CF009387777D631CF704F8
:1049F00097650100938585EF175501001305C57173
:104A0000EF3011631C448356E4008355C40003C691
:104A100007001765010013056521EF307161294515
:104A2000EF3051650356E40097F7FF1F83D7478C9B
:104A30006383C7088355C40008442244B24041013F
:104A40006FF0EFF6B707CC009387777D631FF7020F
:104A500097650100938585E9175501001305C56B1E
:104A6000EF30115D1C448356E4008355C40003C637
:104A70000700176501001305651BEF30715B2244C9
:104A8000B240294541016F30F15EB707CE009387F0
:104A9000777D6302F70297650100938525E5175539
:104AA000010013056567EF30B1584C4017650100F0
:104AB0001305050D25B7B240224441018280B7E7B6
:104AC00004004111FC4726C2938481122E8606C63B
:104AD00022C42E84AA852685829797650100938536
:104AE000E5E61755010013052563EF30715483C5C2
:104AF00081121765010013056587EF307153294551
:104B0000EF30515783C704003D479387070693F75B
:104B1000F70F6360F76217570100130727728A07C0
:104B2000BA979C43BA9782879D476303F4029765BF
:104B300001009385A5E1175501001305E55DEF30F0
:104B4000314F176501001305E582EF30714E5DAA04
:104B500083C79112A5CF83D7C11203D7A112C20771
:104B6000D98F17E7FF1F232FF77683C76400976558
:104B700001009385A5DD175501001305E55917E7D9
:104B8000FF1F230FF774EF30B14A97E7FF1F93879A
:104B900067758C4317E6FF1F03468674175501009F
:104BA0001305057FEF30D1482945EF30B14CA38480
:104BB00001122244B2409244930700F82384F11278
:104BC0009D451385811241016F10D036EF30C053DF
:104BD0002395A112935705012A842386F112935736
:104BE00085010145A386F112EF30C0522387A1123F
:104BF00097650100938585D5175501001305C551AB
:104C0000EF30114303C6E112A285175501001305C9
:104C1000A57949BFCD476301F402976501009385EB
:104C2000E5D2175501001305254FEF307140175598
:104C300001001305E57811BF37E404007C444146C8
:104C4000938591121385C129829783C7A11303C746
:104C50009113A20703238405D98F17E7FF1F2310A1
:104C6000F7681306000A89452244B240924417E5CA
:104C7000FF1F03452565410102838D476301F4024F
:104C800097650100938585CC175501001305C5482C
:104C9000EF30113A17650100130545887DB503C44F
:104CA000A11283C7911297650100938525CA22043A
:104CB00017550100130545465D8CEF307137A2850D
:104CC0001755010013054571EF3091362945EF3036
:104CD000713A0D46938581122285EFE01FB9AA84AF
:104CE0000DC997650100938565C617550100130529
:104CF000A542EF30F133A685175501001305056F66
:104D0000EF3011332244B2409244294541016F30C3
:104D1000713697E7FF1F2392875CB7E7040011669F
:104D200003A38705130606E891453DBF8D47630140
:104D3000F40297650100938565C1175501001305BD
:104D4000A53DEF30F12E176501001305E58BF5BB8E
:104D500003C4A11283C7911297650100938505BF13
:104D60002204175501001305253B5D8CEF30512CB3
:104D7000A285175501001305A568EF30712B294551
:104D8000EF30512F0D46938581122285EFE0FFAD64
:104D9000AA840DC197650100938545BB1755010095
:104DA00013058537EF30D128A68517550100130567
:104DB0006566B9B797E7FF1F23908752B7E70400EE
:104DC000116603A38705130606E89305000269BD73
:104DD000894763E1870297650100938525B71755D9
:104DE000010013056533EF30B12417650100130589
:104DF0006584A1BB83C4A11283C79112976501008A
:104E00009385C5B4A204175501001305E530DD8C68
:104E1000EF301122A6851755010013052561EF30EB
:104E200031212945EF30112522869385811226856F
:104E3000EFE0BFA32A84630D0530976501009385D9
:104E4000E5B0175501001305252DEF30711EA28521
:104E5000175501001305C55E65B58D476301F40262
:104E600097650100938585AE175501001305C52A86
:104E7000EF30111C1765010013058580F9B103C4DB
:104E8000A11283C7911297650100938525AC220476
:104E900017550100130545285D8CEF307119A28567
:104EA000175501001305055BEF3091182945EF30C8
:104EB000711C0D46938581122285EFE01F9BAA8409
:104EC0000DC197650100938565A81755010013056D
:104ED000A524EF30F115A685175501001305C55817
:104EE00005B597E7FF1F239B873EB7E704001166D0
:104EF00003A38705130606E893050004B5B391479D
:104F000097650100938585A4175501001305C520F9
:104F100063E98700EF30D111175501001305457B78
:104F20002DB1EF30F110A28517550100130545553D
:104F3000EF3011102945EF30F11383C4A11283C75C
:104F40009112A204DD8C2286938581122685EFE0E2
:104F5000DF912A8449C1976501009385259F1755E4
:104F600001001305651BEF30B10CA2851755010038
:104F70001305455271B3914763E1870297650100BC
:104F80009385C59C1755010013050519EF30510A8B
:104F9000175501001305C57A4DBE83C4A11283C7FE
:104FA0009112A204DD8C2286938581122685EFE082
:104FB000DF8B2A840DC197650100938525991755CC
:104FC000010013056515EF30B106A28517550100E4
:104FD0001305854D35B397E7FF1F2391973031B700
:104FE0008D476301F4029765010093852596175557
:104FF000010013056512EF30B103175501001305C9
:10500000657BA1B683C7A112A20703C591120D4605
:10501000938581125D8DEFE05F852A84630A051216
:105020009765010093858592175501001305C50EFC
:10503000EF301100A2851755010013052548C9B1AD
:1050400099476301F40297650100938525901755F0
:1050500001001305650CEF30A17D17550100130504
:105060002577E5B403C4A11283C7911297650100A7
:105070009385C58D2204175501001305E5095D8C44
:10508000EF30017BA2851755010013052544EF3051
:10509000217A2945EF30017E1946938581122285B8
:1050A000EFE0AFFCAA840DC1976501009385058AE6
:1050B0001755010013054506EF308177A685175572
:1050C00001001305A5412DB997E7FF1F239E8720F7
:1050D000B7E70400116603A38705130606E89305E6
:1050E000000859B6854797650100938525861755B1
:1050F0000100130565026309F400EF306173175571
:1051000001001305E53E91B4EF308172175501009F
:105110001305853FEF30C1712945EF30A175224459
:10512000B240924497E7FF1F239B071A41016F206B
:10513000107297650100938565811755010013056D
:10514000A5FDEF30E16E175501001305A56CF5BA0A
:10515000B2402244924441018280411106C622C4D9
:10516000EFE0AFF09377F50F95CB2A8497550100C8
:105170009385457F17550100130505FAEF30416B04
:105180009375F40F17650100130585A2EF30416A8E
:105190002244B240294541016F30C16DB2402244E2
:1051A000410182801D71A6CA86CEA2CCCAC893F7DF
:1051B0001500AE8495CBAD67371700409387A7AA3B
:1051C0001CC3B7E70400BC4F13060019854517E55B
:1051D000FF1F0345850A829713C51400F6406644F5
:1051E000D64446492561828093F78500638C071673
:1051F00017E7FF1F1307071097E6FF1F9386061098
:1052000081471306007D835507006375B600850747
:1052100093F7F70F0907E318D7FE93B7270093C753
:10522000170017E7FF1F2304F70C37670E02130759
:1052300057CC3AC605472308E10017E7FF1F03577D
:10524000270BA308E10021832309E10017E7FF1FD3
:105250000357470AA309E1002183230AE10017E766
:10526000FF1F03574709A30AE1002183230BE10035
:1052700017E7FF1F03574708A30BE1002183230C07
:10528000E10017E7FF1F03574707A30CE100A30D39
:10529000F100218397E7FF1F83C7A705230DE100D6
:1052A0001387170097E6FF1F2385E604230EF100FE
:1052B000E976C167FD1701478506C54570003A9636
:1052C00003460600B18F214613F51700858301C5FB
:1052D000B58FC207C1837D1665FA0507E310B7FED7
:1052E000A30EF100A183230FF10097E7FF1F83C7EF
:1052F000E7FF91C74D466C0013052010B93D97E7B5
:10530000FF1F83C787FEA1C39305000317E8FF1F94
:105310000358A8FE97E7FF1F83D707FE17E7FF1F75
:10532000035767FD97E6FF1F83D6C6FC176601008B
:10533000130606960810EF30616593150501C181CB
:105340000810EF10203FB7E70400BC4F05661306B6
:1053500086BBA14517E5FF1F034525F2829713C5BC
:105360008400ADBD93F7250063810710170400206A
:105370000344C4549707002083C7575422045D8C0C
:10538000B1679387C755631AF40497E7FF1F83C774
:10539000E7F58DCF170900200349895297070020B0
:1053A00083C7F7512209176501001305658F33691B
:1053B000F900EF30E14717E6FF1F034636F3970584
:1053C00000209385A54F4A85493B3DA01765010004
:1053D0001305858DEF30815A05A0B5679387D755A2
:1053E000631AF40297E5FF1F83C555F017050020E7
:1053F0001305C54CEF100034A28517650100130595
:10540000A58DEF30E14213C5240097E7FF1FA38F5E
:1054100007ECE9B3AD679387B7556313F4029707B9
:10542000002083C7F749A2079705002083C5454997
:10543000DD8D176501001305E587EF30613F6DBF16
:10544000A9679387A7556317F40017650100130533
:10545000A58749B7416517E6FF1F034636E997055B
:1054600000209385A5457D1585B793F74500014537
:10547000E38607D61765010013054587EF30015015
:10548000EF10006013C5440091BB411122C437E402
:1054900004005C5C06C6354697550100938585552A
:1054A00017650100130505D4829701E9176501000E
:1054B00013058586EF30814C01A08327041C829759
:1054C0002A840545EF80301EEF10D111EF100170D6
:1054D000EF70B0522285B2402244410182801567AC
:1054E000B71700401307575598C3D8439D66558F8B
:1054F000D8C3D843FD76758FD8C3D8431367F70F49
:10550000D8C335671307C7CC98C38280B7C7A55ADD
:1055100001119387C7333EC497E7FF1F83C7F7DCAA
:105520003EC6B7F7070003C7070106CE22CCA54742
:105530006313F70001A01164930504F093060010B3
:105540000146254597D0FF1FE78040F630009305C0
:1055500004F0A146294597D0FF1FE78020F597E585
:10556000FF1F83C595D8175501001305E578EF3067
:10557000212CF24062440561828001119165A146AF
:105580003000938505F02D4506CE97D0FF1FE780AC
:10559000E0F12247B7C7A55A9387C7336312F702D2
:1055A000B245175501001305656AB335B00097E79A
:1055B000FF1FA38CB7D2EF30A127F2400561828094
:1055C00085478545175501001305856A17E7FF1FB5
:1055D000A30DF7D0EF30C125153FC5B74111130515
:1055E000800406C622C426C24AC097D0FF1FE780A7
:1055F00000AC85457D55EFD0CFC285457D55EFD0B8
:10560000AFCC371400408327840C8D451305000868
:1056100093E707082324F40CEFD00FCBEFD02FE74C
:10562000EFD03FECEFD0BFFF8D35813FEFE0DFAE35
:105630008D450D65EFD04FC91705002013050538BE
:105640009304840C05691304C40C896704C140C128
:1056500044C500C9232425015CC937E4040083271D
:10566000841E97E4FF1F938444C18297FD2A0D2C6A
:105670008327040817050000130505B382972380CC
:10568000A4003C4C13060064854582973C4C03C53E
:105690000400130689BBA1458297913597D0FF1F5F
:1056A000E78000D401458280B7F7070003C70701F0
:1056B000A547AE866316F7009397450191C301A0F5
:1056C000AA850146254517D3FF1F670023DE411138
:1056D000B2862E86AA852D4506C697D0FF1FE78085
:1056E000E0DCB2400145410182809307000463E69B
:1056F000C7021D71A2CC2A84080886CE32C6EF30BC
:10570000C107B2461008A285294597D0FF1FE78040
:10571000E0D9F64066442561828039558280411186
:1057200022C426C206C6B71700403147AA84238C7C
:10573000E704014405041374F40FEFC0BF80E39B3A
:1057400084FEB2402244924441018280B717004057
:1057500003A7C70CA166558F23A6E70C1377150086
:1057600015C303A7870C8966558F23A4E70C098905
:105770003717004019CD8327870C9166D58F2324D6
:10578000F70C828003A7C70C8966558F23A6E70C08
:10579000F9BF8327C70C9166D58F2326F70C82802B
:1057A000371700408327C70CA166D58F2326F70C37
:1057B0008280411122C406C626C293F725002E849A
:1057C000ADCF094597E4FF1F83C444B3893FB717A2
:1057D00000403147238CE704EFC0CFF6860497E7FB
:1057E000FF1F938727B1A6972390A70017E5FF1FF8
:1057F0000345C5B005051375F50F97E7FF1F238F08
:10580000A7AE8D4763E4A7029137B7E70400BC4F0A
:105810000946894517E5FF1F034535A682971345BD
:105820002400B2402244924441018280B7E7040040
:10583000BC4F130620038545F1BF93F715000145C2
:10584000EDD3B93F014597E7FF1F238907AAFD3D27
:10585000B7E70400BC4F0946894517E5FF1F03451C
:10586000D5A18297134514006DBF41119305001017
:10587000054506C6EFD0AFAF814513050010EFD048
:105880004F9A8D453965EFD02FA489450D45EFC05E
:105890006FE40145653D2937B2401145410141B5ED
:1058A000411122C437E404008327040806C6170503
:1058B0000000130545F0829797E7FF1FA38FA79A73
:1058C000032384052244B240130620038545410189
:1058D0000283411126C2AE848D4522C406C62A84A5
:1058E000EFD08F9EB717004099C803A5C70C418D14
:1058F00023A6A70CB240224492444101828003A512
:10590000870C418D23A4A70CF5B7834705000347F7
:105910001500A207D98FC2076177C1871307272017
:105920006397E70083452500370504005DB7828053
:1059300097E7FF1F9387C79C18429C4383D6450077
:105940000345070083C5C700035646006396A500BC
:1059500083D5E700638DD502011106CE2386A7000B
:105960002397D700B705CF00DC4B9385757D0507DE
:105970007D162EC2230001003AC42316C10023174E
:10598000D10099C30A858297F240056182808280A6
:10599000DC4DDC4B81CFB7E70400904503A38705BE
:1059A000914517E5FF1F0345E595028382806D71E0
:1059B0003C083EC6B707E500232291103EC8AA84E2
:1059C0003C083285232611103ECA2324811023204F
:1059D00021112E89EF20F06C2A84975501009385C0
:1059E000E53B1745010013052573EF207164A2857F
:1059F000175501001305854AEF2091632945EF20D3
:105A00007167B705CB009385757D6800EF1000497D
:105A1000A2856800EF20905E014781467000CA852C
:105A20002685EF10206815C52A84975501009385B7
:105A3000E536174501001305256EEF20715FA2853D
:105A40001755010013054546EF20915E2945EF20CB
:105A500071628320C1100324811083244110032923
:105A600001105161828097E7FF1F93876789184271
:105A70009C43797122D406D60348070083C80701E6
:105A80002A8483D64500035546006396080183D8CF
:105A90002701638DD8022388070105072399D700C2
:105AA0003708CC00DC4B1308787D3ACC1307F5FFA0
:105AB00042CA23080100231EE100231FD10099C719
:105AC000080832C62EC482973246A2452285C535C3
:105AD000B2502254456182806D713C083EC0B707C8
:105AE000E5003EC23C083EC4232611102324811049
:105AF000232291102317010023180100231901000C
:105B0000231A0100231B010097D7FF1F83D7474C9F
:105B100099E3C167FD172316F10097D7FF1F83D7BD
:105B2000474B91EB97D7FF1F9387877D9C439C43FF
:105B3000DC4783D7070017D4FF1F13046449584C70
:105B40002317F10083574400484B2318F10005ED5B
:105B5000975501009385852B174501001305C55BFB
:105B6000EF20114D175501001305852BEF20514CE7
:105B70002945EF2031508320C11003248110832454
:105B800041105161828097D7FF1F83C7D74489EBAB
:105B9000B7E70400BC5782975C4C23AA0700E1BF1B
:105BA000FD1797D6FF1FA388F642035607018347C8
:105BB00004014C470A85230BF100EF20504297D790
:105BC000FF1F9387E7739C430147814688430A86FA
:105BD0006C00EF10204DAA841DC9975501009385D4
:105BE000E5221745010013052553EF207144A685D2
:105BF0001755010013058523EF2091432945EF2018
:105C00007147584CB7E70400BC57484B69B797D762
:105C1000FF1F83C7573CF5D7B7E70400BC4F1044BC
:105C2000854517D5FF1F0345E56D8297A9B75C4EE3
:105C3000DC4BA9CBA1C9411122C4174501001305B2
:105C4000A54D2E84975501009385851A06C6EF2031
:105C5000313EA285175501001305851FEF20513DE8
:105C60002945EF203141B7E704002244B24003A3A5
:105C7000870517D5FF1F0345E568130640069145C4
:105C8000410102838280411122C417D4FF1F1304F3
:105C900024321C4C06C689C7DC4399C34C48829702
:105CA000584CB7E70400BC57484B82975C4CB24055
:105CB000224423AA07004101828017D7FF1F130740
:105CC000E75B834707009306F00B850793F7F70F11
:105CD00063E9F60097D6FF1F2382F65A03450700B3
:105CE0008280930700F8FDB7835745006386070E4F
:105CF00001114AC817D9FF1F1309892D52C4032A5D
:105D0000C90106CE22CC03274A0126CA4EC656C276
:105D1000F15721EF1307D00DFD576368C704B7E9AA
:105D2000040083A709072A841305860042054181E0
:105D3000B284AE8A8297232AAA000325C9015C494E
:105D40009DEF975501009385A508174501001305A0
:105D5000A53CEF20F12D175501001305A517EF20E5
:105D6000312D2945EF201131DD57F2406244D244F4
:105D70004249B249224A924A3E8505618280938710
:105D80004400B705CF002319F5009385757D3105D3
:105D9000EF10C0100325C901834564003105EF20D1
:105DA000F0250325C9012686D6853105EF2030234D
:105DB0007146A2854A85EF20511C504419CA83A719
:105DC0008905854517D5FF1F0345C5538297814730
:105DD00069BFEFF07FD0E5BFFD573E85828041115E
:105DE00026C297D4FF1F9384A41ED84C22C437E444
:105DF00004003C54484B06C68297DC4C0323C40580
:105E00002244B240924423AA070017D5FF1F03453E
:105E1000654F854541010283411126C297D4FF1F7A
:105E20009384044E9C4006C622C44AC0C9CBDC43BE
:105E3000D9C75CC12300B5002A849755010093851A
:105E400065F4174501001305252DEF20711E294526
:105E5000EF2051229C4023A4070023A2070097D7DC
:105E6000FF1F9387E714DC4FDC4B81C72955EFF008
:105E70009FE197D7FF1F9387A715DC4FDC4B91C39A
:105E8000B93F37E904008327C905894517D5FF1FA6
:105E90000345454782978327C905914517D5FF1FBD
:105EA0000345454682979C4003A3470163090300CD
:105EB00022852244B2409244024941010283B24009
:105EC000224492440249410182800111328506CE6A
:105ED00022CC26CA2E84EF20D01CAA84975501001C
:105EE000938585ED1745010013050523EF20511417
:105EF000030784000356640083554400A6861755A3
:105F000001001305E5F6EF20B1122945EF209116A7
:105F100097D7FF1F83C7270A639897000145EFF0C3
:105F20009FD681450A85CD3DF2406244D244056149
:105F300082806D7123248110232611102322911059
:105F400093F745002E84638507123C083EC0B707CF
:105F5000E5003EC23C083EC423170100231801009F
:105F600023190100231A0100231B010097D7FF1FEB
:105F700083D7070499E3C167FD172316F10097D76C
:105F8000FF1F83D7070391EB97D7FF1F93874737EF
:105F90009C439C43DC4783D7070017D7FF1F130799
:105FA00027012317F100544F835747002318F100AE
:105FB000DC4A95EF97550100938545E417450100AC
:105FC00013058515EF20D10617550100130545E58A
:105FD000EF2011062945EF20F109134544008320E5
:105FE000C11003248110832441105161828097D70E
:105FF000FF1F83C757FC2555ADCBFD1717D6FF1FD5
:10600000A30BF6FA03D6060183470701CC460A859F
:10601000230BF100EF20A07C97D7FF1F9387472E1B
:106020009C4317D7FF1F1307A7F8976601009386B5
:10603000A6BA88430A866C00EF10C006AA8451DD18
:1060400097550100938585DB174501001305C50CA5
:10605000EF20017EA68517550100130525DDEF20F1
:10606000217D2945EF2011012685EFF0DFC1B5B76D
:1060700093F725009DC3B7E70400BC47414681451F
:10608000280882972555EFF01FC028089305F00FC8
:10609000EFF09FD81345240099B793F715000145F9
:1060A0009DDFEFF07FA31345140015BF5C4D411138
:1060B00006C688C317D7FF1F2324F724B7E70400B9
:1060C00083A70708170500001305E5E68297B2408D
:1060D00097D7FF1F2388A722014541018280011124
:1060E0009307700F2316F10006CE97D7FF1F83C7C3
:1060F00037228DE7B7E7040083A7870D17D6FF1F68
:10610000034646186C0017D5FF1F0355A52082973C
:106110003335A00097D7FF1FA38CA71EF24005615F
:10612000828041119397050122C406C626C2C18709
:106130002E8463D40702B7E40400FC5417D5FF1F74
:1061400003454514829719C1BC5482972165218D5E
:10615000B240224492444101828093F715008DC7DA
:10616000B7E7040083A7471A17D6FF1F130646E8B0
:10617000970500209385858917D5FF1F0345851056
:10618000829713451400E9B793F7250099CFB7E735
:106190000400BC4F13060064894517D5FF1F034553
:1061A000650E82971345240065B793F785009DC758
:1061B000B7E7040003A8871A1307401F97D7FF1FEC
:1061C00083C7470C814613064006994517D5FF1F24
:1061D000035545140298134584009DBF93F745006D
:1061E0000145BDD7B7E4040083A7041817D5FF1FE6
:1061F000035545128297BC4C13060064914517D590
:10620000FF1F0345250882971345440091B797D790
:10621000FF1F83D727106396A70217D7FF1F231CE2
:10622000B70E17D7FF1F2319C70E17D7FF1F231647
:10623000D70E2E8617550100130585DFBE856F200A
:10624000215F17550100130525E06F2021730357C7
:106250004500011106CE22CC97D7FF1F83D7870BAD
:1062600017550100130545DE6310F706C167F917DE
:1062700017D7FF1F2320F70A37E4040097D7FF1F23
:1062800023AC07087C4C894517D5FF1F034585FFC4
:1062900082977C4C914517D5FF1F0345A5FE829739
:1062A00097D7FF1F83C7770495C78547A307F100DA
:1062B000832744171306F100854513055030829754
:1062C000175501001305C5CDEF20416BF240624424
:1062D0000561828097D7FF1F83C7470117550100CB
:1062E0001305C5D0F5F38547A307F10083274417AD
:1062F0001306F100854513055030829717550100AC
:10630000130545CCD1B77D15954763EFA7181757EF
:1063100001001307A7C50A053A951C41011122CCBB
:1063200006CE26CABA972E84828717550100130518
:1063300025D2EF20A16405A203C725009947631C5D
:10634000F7002E8529378345640017550100130592
:1063500025D1EF20E14D97D7FF1F238807F8175568
:1063600001001305A5D1F1B703C7250095476317B1
:10637000F702C16717D7FF1F0357C7F9F91703D5EE
:10638000A5006307F702B7E7040083A7C717829742
:1063900017550100130585CFEF20415E854717D7BC
:1063A000FF1F2304F7F4175501001305A5D051B7BB
:1063B00097D7FF1F2390A7F683D7E500B7E4040023
:1063C000096617D7FF1F2318F7F483D705011306B3
:1063D000069017D5FF1F0345E5EA17D7FF1F231DBA
:1063E000F7F283D72501A14517D7FF1F2317F7F22F
:1063F000BC4C8297BC4C13060064914517D5FF1F17
:10640000034545E882970356E4008355A4001755D9
:1064100001001305E5C8EF20A14149B71755010058
:10642000130505CA39B783C525009147639AF5025C
:10643000854717550100130525CAA307F100EF2072
:10644000E153B7E7040083A747171306F10085451A
:10645000130550308297F2406244D2440561828035
:106460009947639EF5002285EFF07FDE8345640047
:10647000175501001305C5BEEF20813BE9BF9547C5
:10648000639FF50083471400175501001305C5C429
:10649000E39107EA175501001305C5C559BD175506
:1064A00001001305A5C5C9BF8280411122C417D4BC
:1064B000FF1F1304A4B5AA8617560100130686AC65
:1064C0002285C14506C6EF20614C0357440097D78B
:1064D000FF1F9387A7B42393E70003576400239417
:1064E000E700B240224441018280130101DC232CE9
:1064F000812237E4040083270408232E1122232A53
:106500009122232821232326312317050000130578
:1065100085C1829717D9FF1F1309C9D699478544AA
:106520002300A9002318F10297550100938585AE39
:106530009307400617450100130505BE2314F11209
:10654000230C910097D9FF1F938989DAEF20412E00
:1065500083D5090017550100130585A3EF20412DB0
:106560002945EF20213103D50900813783274417BE
:10657000300885451305503082978327441717D676
:10658000FF1F1306A6A9CD451305703082978327F8
:10659000441717D6FF1F130666A6B54513056030CE
:1065A0008297832744171018894513051031829765
:1065B000832744173012894513052031829783279A
:1065C0004415930500050D458297832744159305CF
:1065D0000005114582972306910023089100230CA2
:1065E000910023240112230801028327841630120C
:1065F0009145130570408297832784167000854566
:1066000013050040829783278416100885451305DB
:106610001040829783278416101885451305204063
:10662000829783278416300885451305504082974A
:10663000832704157D558297832744137D558297C0
:106640007D55EFC0BFA68327440C8297EFC03F84DF
:106650008327841417D6FF1F1306469BD545014593
:1066600082971306700F81450818EFB04FEA8947EB
:10667000554681452808230891022306F100EFB012
:106680000FE98D471306700F81452812230CF10086
:10669000EFB0EFE791472304F11297D7FF1F9387DD
:1066A000E7BE984383C7470010189305700F014554
:1066B0003AC8230AF100EFC09FA670008545054542
:1066C000EFC0FFA53008D5450945EFC05FA53012E2
:1066D0009305700F0D45EFC09FA410089545114517
:1066E000EFC0FFA3C16717D7FF1F1307A7C2F91792
:1066F0001CC32322070017D5FF1F130565B8EFC081
:10670000FFA08327C41D17D5FF1F1305E5BF829780
:106710003C4803450900854582978320C123032413
:10672000812383244123032901238329C1221301C7
:10673000012482800111C16726CA06CEAA8422CC18
:1067400017D5FF1F035505BDF9176306F50437E498
:106750000400832784122E862315B1000147814649
:10676000ED4582977C440356A1002AC6A6858297F0
:106770002C0017D5FF1F0355E5B9EFC0BFA501CD0C
:10678000175501001305058AEF20411F8327C41206
:10679000ED4528008297F2406244D2440561828030
:1067A000397126DA06DE22DCB28409C9894763031F
:1067B000F502F2506254D2542161828017550100D3
:1067C0001305C5952E84EF20611BA6852285EFE079
:1067D0000FAFC5B7B7E70400FC472808829703440A
:1067E000810183479101175501001305E5932204A8
:1067F0005D8CEF20A118B1679387C7556319F40228
:1068000097D7FF1F83C787AE81CF8347C101034559
:10681000B1012686A2072C085D8DEFE01F9451BFC1
:106820001745010013054548EF20411559B7AD67DD
:106830009387B755631FF4008347D1018345C10196
:106840001745010013050547A207DD8DEF10517EA6
:106850008DB7B5679387D755E30DF4F4A967938790
:10686000A7556317F400174501001305E5456DBFF3
:10687000B9679387E755631EF4088D47E3FB97F2EA
:106880000344B10197D4FF1F83C434A69755010078
:1068900093858587B337800017D7FF1FA307F7A419
:1068A00009C4975501009385E58617550100130526
:1068B0006588EF10F17797D7FF1F83C717A363840D
:1068C0009700EFE0BFC497D7FF1F83C717A29DC3F0
:1068D00085472302F100B7E7040083A7471750005C
:1068E000854513055030829717550100130585859E
:1068F000EF20C1089967938757EE2312F100914565
:10690000854748002303F100A3038100EFF09FE2D5
:106910004DB5BD671387F755631AE4049967D5171A
:106920002312F10097D7FF1F9387479C83C7070067
:10693000480095452303F10097D7FF1F83D7479B56
:10694000A303F100A1832304F100EFF0BFDE17D60B
:10695000FF1F0356E69997D5FF1F83C52599174555
:1069600001001305A57FEF10B16CA1B59387F76601
:10697000631CF4049D67D9172312F10097D7FF1FFA
:1069800083C7C7962303F1009DC7B7E70400FC4700
:1069900041469385C129130571008297CD45480072
:1069A000EFF05FD997D5FF1F83C5459417450100C8
:1069B0001305C57D61BDB7E70400BC47414681456D
:1069C000130571008297D9BFA685280809B5011162
:1069D00006CE22CC2DC9854717C7FF1FA305F76236
:1069E00097C7FF1F2382076237E4040083278417B9
:1069F0009305F1001305503082978347F100A9CB2E
:106A0000A3070100832744171306F10085451305EA
:106A1000503082978327441717C6FF1F1306065E60
:106A2000B5451305603082978547A307F10083279A
:106A300044171306F1008545130550308297F24044
:106A400062440561828097C7FF1FA38E075A49BF22
:106A50008327441717C6FF1F1306465AB54513056B
:106A60006030E9BFC16717D5FF1F0355A58AF91725
:106A70006307F500B7E7040003A3C717028382800A
:106A800001118547A307010017D7FF1F2302F788CD
:106A9000B7E7040083A7471706CE1306F100854524
:106AA000130550308297F24005618280EFB28FA1CA
:106AB0002A8408452E89B28909C900C197050000BA
:106AC0009385C5746105EF00810181447D5AEF1003
