:020000040000FA
:040000006FD00400B9
:101000006F00D03E00000000000000009020002093
:10101000A4220020A9BDF9F55C23002000000000F7
:10102000000000005C230020902000200000000051
:101030000000000090200020000000009020002010
:101040000000000090200020902000209020002030
:1010500090200020902000205C2B00209020002079
:101060000000000090200020902000209020002010
:1010700090200020C22300209020002090200020FB
:101080009020002090200020902000209020002020
:101090009020002001A04111B7170040985F3AC688
:1010A000945F3247E39CE6FE3245410182800111A4
:1010B00013078008F337078093F787083EC20100C3
:1010C0000100B7170040930570052380B70413068D
:1010D00080FA2380C7040100010083C6B70493F699
:1010E000F60DA385D704238007049246F3A6068055
:1010F0000100010093760502D5CEF336078093F602
:10110000860836C4010001002380B7042380C70489
:1011100001000100B70614007D89558D88C70100C4
:1011200001000100010023800704A246F3A6068007
:101130000100010073370780137787083AC6010062
:1011400001002380B7042380C704010001000100CF
:1011500001003727004093061005A303D7802380A2
:101160000704B247F3A70780010001009307800836
:10117000F3B7078093F787083ECE01000100B71749
:101180000040130770052380E704130780FA2380CB
:10119000E7040100010003C7B70413670708A3852C
:1011A000E70423800704F247F3A70780010001004A
:1011B0000561828093760504BDC6F336078093F6F9
:1011C000860836C8010001002380B7042380C704C5
:1011D00001000100B7061400938606047D89558D31
:1011E00088C7010001000100010023800704C246F6
:1011F000F3A6068001000100733707801377870884
:101200003ACA010001002380B7042380C70401000B
:1012100001003727004093062005A303D7802380D1
:101220000704D24781B773370780137787083ACC12
:10123000010001002380B7042380C70401000100DE
:1012400098471367070C98C723800704E24719BF24
:101250000111814601468145114506CE812C930737
:101260008008F3B7078093F787083EC601000100A6
:10127000B7170040130770052380E704130780FAAF
:101280002380E7040100010003C767041367170008
:101290002383E70423800704B247F3A707800100F4
:1012A0000100F2400561828041118146014681457D
:1012B0001145ED2A13078008F337078093F7870855
:1012C0003EC401000100B7170040130670052380DB
:1012D000C704930680FA2380D70401000100FD555E
:1012E0002396B70223800704A245F3A505800100D9
:1012F000010073370780137787083AC601000100A1
:101300002380C7042380D7040100010003C76704BA
:10131000136717002383E70423800704B247F3A76A
:1013200007800100010001A0BD473305F50201005F
:101330007D1575FD8280411122C426C206C6AA848D
:10134000014463179400B2402244924441018280D8
:1013500005041305803E4204C13F4180DDB7000013
:101360009305000273A04580824573901534924026
:101370002242B2424243D2436244F2440255925561
:101380002256B2564257D2576258F25806499649E9
:10139000264AB64A464BD64B664CF64C065D965DE1
:1013A000265EB65E465FD65F09617300203041114C
:1013B000B7170040985F3AC6945F3247E39CE6FE59
:1013C000324541018280B71700401307000323888C
:1013D000E7028547171700002326F7EE7300203039
:1013E000411122C406C6370400201C408297F5BF75
:1013F0002303048015472303E48001002302A48013
:10140000828083076480E3CE07FE2303048082800A
:1014100083076480E3CE07FE034544808280830710
:101420006480E3CE07FE2302A4808280411126C49B
:101430004AC24EC006C61377F50BAD47AA892E895E
:1014400095446306F70019456537653F8D444E8521
:101450004537FD59FD1463983401B240A244124946
:10146000824941018280135509011375F50F453FEB
:101470002209CDB7011126CC06CEB704080051379A
:101480001545BD37713769372AC6A53F3245937771
:10149000150089EB136515001375F50FF240E24452
:1014A00005618280FD14E9FC0145CDBF397126DC60
:1014B0004ADA4ED852D656D45AD25ED006DE62CE22
:1014C00066CCB7E700E07D5783AA070022C603AACF
:1014D000470023A0E71823A2E718B7170040130717
:1014E00070052380E704130780FA2380E70483C78D
:1014F0004704930B75FFB684E20793FBFB0F854609
:10150000AA892E8B328937240040E187015763FA7C
:1015100076016308D5008946130700026313D500DE
:101520000157D98F93F7F70FB71C00402382FC04B3
:1015300011472303E4801305F00F5D3D094CD135BD
:10154000636D7C11B7050700DA9537870700795579
:1015500063F2E504B3879500636EF702370B08006A
:10156000A94733EB65016399F90689E48144513D4C
:1015700026850DA0DA850945553D05090345F9FF86
:10158000FD14050B693D81C49377FB0FFDF7DD3535
:1015900069FD7D55B7170040130770052380E704E8
:1015A000130780FA2380E70403C74704418B238293
:1015B000E704F250B7E700E023A0571123A2471138
:1015C000E25432445259C259325AA25A125B825BD7
:1015D000724CE24C21618280A5476395F9068569CA
:1015E0001309F00FB3069900B3742B01B694134995
:1015F000F9FFB3749900856B33796901416B938767
:10160000F9FFB3F7270199E363FC340193D949004B
:10161000C147E3E637FF99BF0569C1697D19D9B7AD
:101620001305800D63886901130500026384790145
:1016300013051008CA85DD3B353D21DD4E99B38485
:101640003441D9B7DA852D45D533CA94E30099F2F0
:1016500005097D3BA30FA9FED5BF9387F9FF93F73B
:10166000F70F6361FC0C83C71C0413073008631F6A
:10167000F70437070800636BEB04B3079B00B7065A
:10168000100063F5D704334BEB0089476393F906E9
:101690008980D549E38C04ECDA850945413B110981
:1016A0000327C9FF91472320E48003076480E34EAA
:1016B00007FE23033481FD17EDFBFD14110B81C4DC
:1016C0009377FB0FE9FF7D3371F5E1B5B717004064
:1016D00003C75704B70708001377070219E3B78752
:1016E00007007955E378FBEA33079B00E3FFE7F84F
:1016F00055B58547E382F9F2DA852D45053B938997
:10170000F4FFE38504E6293393F7390091EB832650
:1017100004800327090093074900E39AE6E43E8921
:10172000CE84F1BFB5476396F9001305900BC9311C
:1017300035BDB1471305B00AE38BF9FE99476391B4
:10174000F904B7050800B365BB002D45C5318144D8
:101750008D4BA1497539639674018327048023203A
:10176000F9008504E39834FF8327048013172B01C5
:10177000635507002312F900D5BB2322F900FDB3FE
:101780009D476399F90281451305B0044531BD4475
:101790002320090023220900FD599D3993F7740085
:1017A000CA9703C70700FD14398D2380A700E3966D
:1017B00034FF6DBBA1476392F9046D398144630D19
:1017C0000B008D479304C0036308FB0093040005DE
:1017D00063048B01930440041375C507E30895D88F
:1017E0001945393139390545213126850D390945E4
:1017F0003D314931E31C05D669BB91476399F90036
:1018000013056006F536F53E130590090DB7E38F15
:1018100009D4F154A9BBBD66014717360000130671
:101820006637938606A685458347060093F7F70F2C
:1018300091C382800507E3F9E6FE97370000238B0A
:10184000B734DDB77D166206618693178601E1879E
:1018500063D4070001458280931726003307F50003
:10186000AE9718439C4363E7E7007D16E37FF7FCE0
:101870007D55828005458280FD15E205E18513973F
:101880008501618793F7F50F63480700FD151397EE
:1018900025002A97584365D713851700620561858F
:1018A00082803308B5021C4283A80600B335B50216
:1018B000C29733B50701AE98469585486367B50072
:1018C0006394A50063E3070181480C43C6950CC3EC
:1018D00088C21CC282808147139787016187634356
:1018E000B7008280139727002A97232007008507D7
:1018F000E5B78147014793968701E18663C5B60046
:1019000013351700828093962700AA969442850784
:10191000558FD5B793D755408A07AA979C4305455D
:101920003315B5007D8D828017F3FFDFE702A33BFF
:101930002A84993705C5931725003E940327C4FFD1
:10194000814711EB7D1516053E954205418517F33C
:10195000FFDF6700833B05838507E5B70145C5BF0A
:1019600081471397870161876343C700828013977C
:101970002700B386E50094422A97850714C3D5B79C
:101980007D1662066186014793178601E18763D55C
:10199000070013351700828093172600B306F50061
:1019A000AE9794429C437D16B58F5D8FF1BF8A053B
:1019B000AA9501476363B500828083A6C5FFF11530
:1019C00093D71600D98F9CC11397F601E5B72A83E8
:1019D0000148014701456343D7008280B387050171
:1019E00083A80700B30706019C43C697AA976384A0
:1019F000F80033B517010507B3080301620723A0F8
:101A0000F80061871108C1BF2A830147814701455A
:101A100063C3D70082803388E50083280800330E33
:101A2000E600032E0E003388A8403308C8416384C3
:101A3000080133B508018507B308E300E20723A0D6
:101A40000801E1871107E9B717F3FFDFE702A329D0
:101A50000111B286B2842E86AA850A8575372A843A
:101A6000A6850A85793533348000060413351500C0
:101A7000018D056117F3FFDF6700232917F3FFDFEF
:101A8000E702E3234111AA89AE8A328BB68402C2EF
:101A900002C402C60144131C8401135C8C416349D7
:101AA0009C02939B1400FD1B0549138CF4FFF15C11
:101AB0003304890162046184634D740592478E0486
:101AC000CE9423AEF4FE410117F3FFDF6700A3229B
:101AD00013192400B30B2B01014A93172A00D69740
:101AE00083A50B0088437800340050005D3B050A55
:101AF00093178A01E187F11BE351FCFE92474E994F
:101B000005042320F900A2473EC2B24702C63EC4E4
:101B100059B7131A8901135A8A41131D24009317C8
:101B20008A01E18763CF970092470A044E941CC054
:101B3000A24705091379F90F3EC2B24702C63EC457
:101B400085BFB3079A0313152A00569508417800FC
:101B500034005000050AEA97DA978C439933C1B7ED
:101B6000197106C212C416C61AC81ECA22CC26CEC5
:101B70002AD02ED232D436D63AD83EDA42DC46DEED
:101B8000CAC0CEC2D2C4D6C6DAC8DECAE2CCE6CE5D
:101B9000EAD0EED2F2D4F6D6FAD8FEDA97050000F3
:101BA0009385C5718841E700050092402242B24208
:101BB0004243D2436244F244025592552256B256F1
:101BC0004257D2576258F25806499649264AB64AB1
:101BD000464BD64B664CF64C065D965D265EB65E71
:101BE000465FD65F09617300203000009721002016
:101BF00093814141175100201301C1C017F5FFFF28
:101C000013058540970500209385C53F17160020D2
:101C10001306C6FD63FAC5008322050023A0550004
:101C200011059105E3EAC5FE17A501001305850C12
:101C300097150020938585FB1716002013068665EF
:101C400063FAC5008322050023A055001105910504
:101C5000E3EAC5FE171500201305C563974500206C
:101C60009385453F6377B500232005001105E36D9B
:101C7000B5FEFD42739002BC8D4273904280B72244
:101C80000000938282887390023097020020938232
:101C9000623793E232007390523097420000938291
:101CA000C29B739012346FC0A43573002030397119
:101CB00001436EC619A0397141536AC866CA62CC25
:101CC0005ECE19A0397101535AD056D252D44ED695
:101CD0004AD826DA22DC06DE3301614082824111D5
:101CE0004AC026C222C406C68282B24D4101024DBC
:101CF000924C224CB24B4101024B924A224AB249C9
:101D00004101024992442244B240410182803D4354
:101D10002A876373C3029377F700BDEFADE593762F
:101D200006FF3D8ABA960CC34CC30CC74CC741078B
:101D3000E36BD7FE11E28280B306C3408A069702A6
:101D4000000096966780A6002307B700A306B70099
:101D50002306B700A305B7002305B700A304B70007
:101D60002304B700A303B7002303B700A302B700FF
:101D70002302B700A301B7002301B700A300B700F7
:101D80002300B700828093F5F50F93968500D58DDB
:101D900093960501D58D61B79396270097020000B1
:101DA00096968682E78086FA9680C1171D8F3E96AA
:101DB000E374C3F8A5B73367B500FD530D8B79E71E
:101DC000B7877F7F9387F7F710419441B372F6008E
:101DD0003363F600BE92B3E262006397720C63183D
:101DE000D6065041D441B372F6003363F600BE927A
:101DF000B3E262006398720A631BD60410459445EF
:101E0000B372F6003363F600BE92B3E262006391F0
:101E1000720A631ED6025045D445B372F60033638E
:101E2000F600BE92B3E26200639A72086311D602B2
:101E300010499449B372F6003363F600BE92B3E2E0
:101E40006200639372085105D105E30FD6F61317AC
:101E5000060193970601631CF7001357060193D7F9
:101E600006013305F7409375F50F91E982804183B0
:101E7000C1833305F7409375F50F91E182801377A5
:101E8000F70F93F7F70F3305F740828003460500FD
:101E900083C60500050585056313D60065FA33057D
:101EA000D640828011059105E312D6FE014582805D
:101EB0002105A105E31CD6FC014582803105B10551
:101EC000E316D6FC014582804105C105E310D6FC2E
:101ED00001458280B717004003C777051A051377BD
:101EE000E70FA38BE70413974500598D1365350061
:101EF0001375F50FA38CA70403C7A705C18991C566
:101F000013672700238DE70482801377D70FDDBF87
:101F1000B717004003C777051377E70FA38BE704D4
:101F2000130700F8A38DE7043D47238CE70413074C
:101F30005003A38CE70403C7A7051377D70F238D9E
:101F4000E7048280371700408347A70593E717000F
:101F5000230DF7048347A705858BEDFF0355C705C0
:101F6000520551818280B717004003C7E7020D89EF
:101F700041111377C70F498F93068008F3B6068087
:101F800093F6860836C6010001009306700523808B
:101F9000D704930680FA2380D70401000100238729
:101FA000E70223800704B247F3A70780010001007E
:101FB0004101828041112A83014E930E407E130F0E
:101FC0000019930F400663E56E129308001913037E
:101FD0004006B3781503854E0D4FA14F337365024C
:101FE0000D891335150063EFBE121308F6FF79460D
:101FF00072984208135808013307C70213D6170016
:10200000BE0732976146B3F6C60213068070B386E8
:10201000C6023697A166F58F42075D8FB71600405E
:1020200083C7F60293F70708A303F1000346710084
:1020300083C7F60293F70708E394C7FE834771004E
:10204000B716004093F7F70F6388071293078008CD
:10205000F3B7078093F787083EC401000100B71764
:102060000040930670052380D704930680FA2380EE
:10207000D7040100010023AA070383C6170393E6D0
:102080000608A388D70223800704A247F3A7078086
:10209000010001001166B71700407D16D45BC85FD0
:1020A00093854703A98EF18EF5FA93068008F3B65F
:1020B000068093F6860836C6010001009306700577
:1020C0002380D704930680FA2380D70401000100FF
:1020D00098C103C7170313670704A388E702238087
:1020E0000704B247F3A70780010001004101828085
:1020F0007D133368E3039308E016630E080033682A
:10210000F3039308D016630808009378330093B85C
:1021100018009388D81633081E01131E0801135E99
:102120000E0155B56393E503054863860800014831
:10213000630303002A8871087298FD15131E0801B5
:10214000C205135E0E01C18179BD13F8150063F459
:10215000BF007908D5B713381800E5BF83C7F6026A
:1021600093F70708A303F1000346710083C7F60243
:1021700093F70708E394C7FE8347710093F7F70FBF
:10218000F1DFE9B531714AD966CB06DF22DD26DB06
:102190004ED752D556D35AD15ECF62CD6AC96EC7DB
:1021A000AA8C02D8EF00501E2A8993078008F3B743
:1021B000078093F787083EDA01000100B717004057
:1021C000130770052380E704130780FA2380E704D0
:1021D0000100010003C7F7021377770FA387E70217
:1021E00003C7F70213678700A387E702238007046A
:1021F000D257F3A70780010001000545AD3313074F
:1022000080C13347E902116A93070AE89306500236
:10221000BD69930BA004814A014B13048008930409
:1022200070057D1AB347F9023307D7023EC0FD8718
:102230003ECC938709A69309803E3347F7023AC202
:102240007D873AC4334739038549B399990193D9B6
:102250003940B306D702B30B7703B3C6F602B3CB4C
:10226000FB0236C6FD8636C893D6FB4136CEB7464E
:102270000F00938606243349D9028566938606FAB1
:10228000B3969601B389E902130760553309D90261
:1022900093060010B389E9023349D902B3C9F902A0
:1022A0009316390036CA37190040FD8636D0930D93
:1022B000090493D7F9413ED2F336048093F6860899
:1022C00036DC01000100930770052380FD009306B2
:1022D00080FA2380DD00010001008346390593F672
:1022E000860FA309D9048346390593E61600A3098E
:1022F000D90423800D00E256F3A6068001000100F8
:10230000130C80FA116DF336048093F6860836DEDE
:1023100001000100930770052380FD0023808D01DB
:102320000100010083463905216693E60602A309F0
:10233000D90483560905B3E6A6012318D9048356A8
:102340000905D18E2318D90423800D00F256F3A677
:102350000680010001008346390593F60602638B6F
:10236000061803463905218A6DDE0818EF00D005EE
:102370007336048013768608B2C201000100238000
:102380009D0023808D0101000100B717004003C6A6
:1023900037051376F60DA389C70403C63705136600
:1023A0000602A389C704835609052166B3E6A60180
:1023B0002318D90483560905D18E2318D904238004
:1023C0000D009646F3A606800100010083463905FC
:1023D00093F606026387061483463905A18AEDFE4B
:1023E00097000020E78020CBAA8636D497000020F3
:1023F000E78060CAA256E30AD5FE83560905425516
:10240000B3E6A6012318D904EF00C07D8346390541
:10241000A18AEDDE035609058346290582473376F6
:10242000CA00B306DA0293D5F641B296B388F640F5
:10243000E24733B8C6002E983308F840A247B3B637
:1024400016013308D84063C70701631DF80092479F
:1024500063FA1701C247634DF80E63950701B2474F
:1024600063E8F80E894663E7660FF2469315180095
:1024700013D3F8015E8613951800B365B30042D6F6
:1024800046D4EF5011773258050B137BFB0F63478F
:10249000000163120838A258638F0836130815002C
:1024A000B336A800B69513D6F5013298B336C800F6
:1024B000AE9613581800FE06B3E606017336048084
:1024C00013768608B2C60100010023809D00238098
:1024D0008D01010001000356C902B296C206C182F5
:1024E0002316D90223800D00B646F3A6068001000C
:1024F000010011BDF336048093F68608B6C00100D2
:10250000010023809D0023808D010100010083468E
:10251000390593E60602A309D90423800D008646F7
:102520003DB5F336048093F68608B6C40100010079
:1025300023809D0023808D01010001008346390521
:1025400093E60602A309D90423800D00A6469DBD8B
:10255000E30D0BF0F336048093F68608B6C801004D
:102560000100930680FA23809D002380DD00010096
:1025700001008346390593F5FC0F93F6860FA309F6
:10258000D90483463905CD8EA309D90423800D00D3
:10259000C646F3A6068001000100130580FA034633
:1025A0003905930639051D8A63149629733604800C
:1025B00013768608B2CC01000100130680FA23804E
:1025C0009D002380CD000100010003C606001376A4
:1025D000F60D2380C60003C606001366060223809C
:1025E000C600835609051166D18E2318D904835677
:1025F00009052166D18E2318D90423800D00E646F3
:10260000F3A6068001000100130680FA834639050F
:1026100093F606026388062483463905130C3905B0
:10262000A18AFDDA08184D23F336048093F6860854
:10263000B6D001000100930680FA23809D0023801C
:10264000DD000100010083460C00116693F6F60DD3
:102650002300DC0083460C0093E606022300DC0026
:1026600083560905D18E2318D9048356090521669E
:10267000D18E2318D90423800D008656F3A6068038
:1026800001000100130680FA8346390593F606021D
:102690006385062083463905A18AEDFE9700002058
:1026A000E780609F2A8C97000020E780C09EE30CA3
:1026B00085FF8356090511664255D18E2318D9042A
:1026C00015238346390513063905A18AFDDAF33649
:1026D000048093F68608B6D401000100930680FAC0
:1026E00023809D002380DD00010001008346060059
:1026F00093F6F60D2300D60023800D00A656F3A610
:102700000680010001008356090503462905D247CA
:10271000B376DA003306CA021305800C9355F641EE
:102720003696330DF6408257333CD6002E9C333616
:10273000A601330CFC40330CCC4033088503925681
:102740004E86B335A5033305A503C295EF50714AF4
:1027500063468001631E0C16630C0D1613061500EC
:102760003335A6002E959356F5013696B335D6002F
:10277000AA959396F50105828585D18E6346B000B2
:10278000639D051A638B061A0356C9021582330529
:10279000D6003336C500B2956348B0006391052476
:1027A0001306F00F637DA622894663F3561593073F
:1027B0008008F3B7078093F78708BED601000100B1
:1027C00037170040930770052300F704930780FA3A
:1027D0002300F704010001008356C70289678117AF
:1027E000D58FC207C1832316F70223000704B6570B
:1027F000F3A7078001000100FA506A54DA544A59DD
:10280000BA592A5A9A5A0A5BFA4B6A4CDA4C4A4D20
:10281000BA4D296182801308F5FF3335A800FD15F4
:102820002E951356F5013298B336C800AA9651B1C9
:10283000F336048093F68608B6CA010001002380AF
:102840009D002380AD000100010083463905CD8E37
:10285000A309D90423800D00D646F3A60680010003
:10286000010035BBF336048093F68608B6CE01002E
:10287000010023809D002380CD00010001008346DC
:10288000390593E60602A309D90423800D00F64614
:10289000F3A606800100010095BBF336048093F691
:1028A0008608B6D20100010023809D002380CD0060
:1028B000010001008346390593E60602A309D90405
:1028C00023800D009656F3A60680010001006DBB23
:1028D0009306F5FF33B5A600FD152E959355F5012A
:1028E000AE96B3B5B600AA951396F501858269B583
:1028F000F336048093F68608B6D8010001009306EB
:1029000080FA23809D002380DD00010001008356B2
:10291000C9020566011693F6F60FD18EC206C18272
:102920002316D90223800D00C656F3A606800100A7
:102930000100850A93FAFA0F41B233E6B60045C2A8
:102940000356C9023305D0403338A000B305B04068
:10295000B385054115826345B000D1E16371A608D6
:10296000894663F0560593078008F3B7078093F70D
:102970008708BEDA01000100B71700401307700591
:102980002380E704130780FA2380E7040100010095
:1029900003D7C7027D8B2396E70223800704D6570F
:1029A00081BDF336048093F68608B6DC0100010091
:1029B000930680FA23809D002380DD000100010042
:1029C0008356C9020566011693F6F60FD18EC2062C
:1029D000C1822316D90223800D00E656B9B79307AA
:1029E0008008F3B7078093F78708BEDE0100010077
:1029F00037170040930770052300F704930780FA08
:102A00002300F704010001000356C7029397560004
:102A1000B297C207C1832316F70223000704F657B3
:102A2000C1BB914763EEB7021777010013078776A2
:102A30008A05BA959C41BA978287B717004003A7C9
:102A4000470B1345F5FF698F23AAE70A03A7070B76
:102A5000698F23A8E70A03A7070A798D23A0A70A8D
:102A60008280B717004083A6470B1347F5FFF98E06
:102A700023AAD70A83A6070B558D23A8A70A83A6E6
:102A8000070A758F23A0E70A8280B717004003A7C3
:102A9000470B498F23AAE70A03A7070B1345F5FF46
:102AA00045BFB717004083A6470B1347F5FF758F47
:102AB00023AAE70A03A7070A598D4DB7B7170040A5
:102AC00003A7470B498FEDB7914763EEB70217771E
:102AD00001001307676D8A05BA959C41BA978287F2
:102AE000B717004003A7470D1345F5FF698F23AAC9
:102AF000E70C03A7070D698F23A8E70C03A7070CB2
:102B0000798D23A0A70C8280B717004083A6470DBC
:102B10001347F5FFF98E23AAD70C83A6070D558D11
:102B200023A8A70C83A6070C758F23A0E70C82802F
:102B3000B717004003A7470D498F23AAE70C03A747
:102B4000070D1345F5FF45BFB717004083A6470D96
:102B50001347F5FF758F23AAE70C03A7070C598DC0
:102B60004DB7B717004003A7470D498FEDB7B7170B
:102B7000004003D7A70109C5D98D239DB7008280E6
:102B800093C5F5FFF98DD5BFB717004088474205BB
:102B900041819377050491EB9377F5013755E8016F
:102BA000130505803345F50282809377050C1307E2
:102BB00000046397E7009377F50137459C1CCDB778
:102BC0002165130505D0828037E700E01C4354439C
:102BD000A183E206D58F1CC1FD572320F7182322BD
:102BE000F718828013178500B7E700E023A0E710ED
:102BF000618123A2A7108280B7F700E08847CC4705
:102C00008280814737370040A14663C4C7003285C0
:102C100082800345B740E38EA6FE3385F500034569
:102C2000050085072304A740CDB7970700209387A9
:102C300067629C43173700201307C7413E95636EB8
:102C4000E500174700201307E79B6368A7001707F5
:102C500000202321A7603E858280FD57EDBF4111F2
:102C600022C406C62A840D372947B307E502B240BD
:102C70008D83B3D7870222449507B3D7E70237374E
:102C80000040C207C1832316F700410182807165AD
:102C900041111305052006C6D937B7370040130781
:102CA00070F82381E7000D47A381E70013070004B4
:102CB000A380E70005472387E700B24041018280F7
:102CC000CC41411106C6328503C6150083C50500F7
:102CD00022064D8E42068D654186138875A2630CCF
:102CE0000611634BC804138845A26300060D634AAE
:102CF000C800938535A26301B608239006002946D3
:102D00004DA0138855A26305060D938565A2E316B1
:102D1000B6FE8D451D4663E6E5081146198E63F340
:102D2000C7003E86B7E704002390C600FC4797958E
:102D30000100938525F69DA0138895A263030611D3
:102D4000634E060D1388A5A263000613938505A59F
:102D5000E315B6FA99451D4663E5E504198E63F35C
:102D6000C7003E86B7E704002390C600FC479705DE
:102D700000209385A54E1DA09D451D4663E3E502F9
:102D80002146198E63F3C7003E86B7E70400FC476F
:102D90002390C600970500209385C54FBA9582976A
:102DA0000146B240328541018280AD451D46E3EACD
:102DB000E5FE3146198E63F3C7003E86B7E704008F
:102DC0002390C600FC47977501009385E540F9B74D
:102DD000B1451D46E3E7E5FC3546198E63F3C700B0
:102DE0003E86B7E704002390C600FC4797750100B4
:102DF0009385853F65B78D451D46E3E4E5FA1146A9
:102E0000198E63F3C7003E86B7E704002390C6001F
:102E1000FC47979501009385A5E849B78D451D4668
:102E2000E3E1E5F81146198E63F3C7003E86B7E784
:102E300004002390C600FC4797950100938505E8A0
:102E4000B1BFA5451D46E3EEE5F42946198E63F3AF
:102E5000C7003E86B7E704002390C600FC4797757D
:102E600001009385A5361DBFB5451D46E3EBE5F290
:102E70003946198E63F3C7003E86B7E704002390F6
:102E8000C600FC47977501009385453301BFB7E73E
:102E9000040003A3071397060020938626DE41460D
:102EA000A54517050020130565D402832D4559EF6C
:102EB00003C5050009476317E50803A8450041114C
:102EC00006C60347180032850346080022074168FA
:102ED000518F930828FE6308170363E9E80005187B
:102EE000630307052390060029451DA8130648FE25
:102EF000630BC7021518E31707FF15463E87637B70
:102F0000F602154705A83E8691C30546B7E70400BB
:102F1000FC472390C6004206CC454182829701457A
:102F2000B240410182801306700F3E876374F60041
:102F30001307700FB7E704002390E600FC47131651
:102F40000701D9BF23900600054582808280416732
:102F500079176304E504411122C406C685472A8413
:102F6000639FF500B7E7040022852244B24003A323
:102F70008713970500209385A53241010283894775
:102F80006399F500B7E7040083A7070B854582978F
:102F900071D9B2402244410182808280797122D469
:102FA00052CC2E842A8A97750100938525261775A1
:102FB00001001305652706D63AC626D24AD0B68444
:102FC00032894ECEEF50310EA685177501001305DC
:102FD000A526EF50510D2945EF503111834784004C
:102FE00093F70702F1E38349040089470545324717
:102FF0006396F908544083C7160083C60600A207EB
:10300000D58FC166138616FE638CC7028D16638F3B
:10301000D7068D669386269029456391D706B7E734
:103020000400A285225403A34714B250F249A68695
:103030004A86925402595285624A85474561028305
:103040002D450DEF9307700F354563E99702B7E7FC
:103050000400FC4748441306700FCA8582978149D3
:1030600097070020938787249C43014581CB9C438D
:1030700091C74E852686CA8582970145B250225453
:1030800092540259F249624A456182802D457DF78A
:10309000D5473545E3E497FEB7E70400FC474844CD
:1030A0005546CA8582976DBF2145C9BF411122C4CB
:1030B00037E404008327841326C2AA84416506C628
:1030C000970500209385C51D7D1582978327C40A27
:1030D000170500001305E5E78588829795C003234F
:1030E00004132244B2409244970600209386C6CA35
:1030F0004146C54517050020130505B94101028366
:10310000B2402244924401454101828019C597078B
:10311000002023ADA71801458280454582801147D4
:103120006368A70A977601009386060D0A0536950F
:103130001841411106C63697AE87B285028713073C
:10314000700F6145639DE700B7E70400FC47130675
:10315000700F170500201305251D82970145B24009
:103160004101828005476145E39BE7FEB7E7040024
:10317000FC4705461705002013054512F9BF5547C2
:103180006145E39EE7FCB7E70400FC475546170599
:1031900000201305E528D1B71307700F6145E390B0
:1031A000E7FCB7E70400FC471306700F1705002083
:1031B000130585285DB715476145E392E7FAB7E740
:1031C0000400FC471546170500201305A50D71B72F
:1031D00009458280411126C2B7E4040083A7C413C5
:1031E00022C44AC006C62E84970500209385450B4D
:1031F0002A898297058905C5970700209387C7A864
:1032000083D7A70BA28503A3440D2310F400224407
:10321000B24092444A850249014641010283B240CC
:103220002244924402494945410182809707002087
:10323000238007089707002023AE0706B717004032
:1032400003A7070CB706C0FFFD16758F23A0E70C78
:1032500003A7070DB7064000558F23A8E70C03A767
:10326000070C3D9B23A0E70C03A7070D136707017D
:1032700023A8E70C8280B717004003A5470C83A75B
:10328000470C598113451500C18B058999E31365D6
:1032900025009707002083C7A7016380A70297072F
:1032A00000202387A70011C9970700209387870074
:1032B00003A30700630303000283828011456FE0CC
:1032C0007FEC411193962500AA852D4506C697F0FF
:1032D000FF1FE780A01DB24001454101828001111E
:1032E00022CC06CE3714004026CA4AC84EC652C465
:1032F00083447405034AB40583498405034994054E
:10330000EFE01FC18347A40593F4F40F137AFA0F7B
:1033100093E71700230DF40493F9F90F1379F90FCC
:10332000B717004003C7A705058B6DFF03D5C70579
:10333000A38D4705238C3705A38C2705A38B970402
:10334000F2406244D2444249B249224A0561828035
:1033500041119397050122C406C626C2C1872E8457
:1033600063DC0700B7E40400FC54829719C1BC5425
:1033700082972165218D3DA093F7150013C5150097
:1033800095E393F7250085C7FD35B7E70400BC4FEB
:103390001306000A894517050020034525F2829788
:1033A00013452400B2402244924441018280939705
:1033B000250163D50702B7E4040083A7C41E8297E2
:1033C000F53DBC4C37F60200130606E0896517058B
:1033D00000200345A5EE8297096569BF9397150103
:1033E0000145E3D107FC177501001305A5EBEF506C
:1033F0004160B7E70400BC4F1306006491651705F0
:1034000000200345A5EB82971165ADB72D71232AE6
:103410009110FD74E98C232C81102328211123267F
:1034200031112A84AE893289930600100A86A68556
:103430002D45232E111097F0FF1FE780200713154D
:103440004401B7E70400FC4751810A05139629009F
:10345000CA850A958297A68585660146254597F017
:10346000FF1FE780A0040A86A68593060010294561
:1034700097F0FF1FE78080038320C111032481118F
:1034800083244111032901118329C1101561828010
:10349000B7F7070003C70701411106C622C426C2B9
:1034A0004AC0A547631AF7009537B24022449244B8
:1034B000024901454101828013942500AA84328982
:1034C000A286AA850146254597F0FF1FE78000FEEA
:1034D000A2864A86A685294597F0FF1FE78000FD52
:1034E000E9B71D71A2CC37E404005C5C485886CE75
:1034F000494697750100938565D6829701E917754E
:1035000001001305E5D6EF50C14E01A0B7F600E06B
:10351000795798CAFD57DCCA0567B7E700E023A0D2
:10352000E7101306F00290C223A0E7180100010083
:10353000370700201847130600048145970600202E
:1035400023ACE6D64157A38AE7403C44080882975B
:1035500097170020938707D73EC8856713870760B2
:10356000231AE1001D673ACC37070105130707103E
:103570003ACE9387B7D31307B00F2310E10223127B
:10358000F102054797F7FFFF938747672301E102A1
:103590003ED817070000130707D39707000093874B
:1035A00047D4B7F50700BAC23EDC1707000013077F
:1035B00067EE970700009387A7D081463000E105AA
:1035C0001945BAC43EDE97F0FF1FE78020EE1808C9
:1035D0008147994630003E96034606008507050759
:1035E000A30BC700E398D7FEC24791C70357410119
:1035F00085676373F70001A0B7E7040083A7470A54
:1036000008088297AA8501C917750100130585C7A7
:10361000EF50612901A0F640664425618280411186
:1036200026C2B7E4040083A7040806C622C417050F
:103630000000130525D2829717040020130404C844
:103640002300A4003128DD3603450400224403A3EF
:103650008405B24092441306003289654101028319
:10366000797106D622D413078008F337078093F7C1
:1036700087083EC201000100B7170040930570059E
:103680002380B704130680FA2380C70401000100D9
:1036900083C6F70293F6A60FA387D70223800704F9
:1036A0009246F3A606800100010073370780137766
:1036B00087083AC4010001002380B7042380C704AF
:1036C0000100010003C7F70213672700A387E70281
:1036D00023800704A247F3A70780010001000545E6
:1036E000EFE07F88E13E01478146814705468545F9
:1036F0001305407EEFE01F8C37E404003C44680073
:10370000514681458297B707C0A83EC8B787E803EE
:10371000938707D03ECA97F7FF1F938747C93EC6D6
:103720007C5868008297B2502254456182804111D2
:103730009775010093850523177501001305C5AE24
:1037400006C6EF504116177501001305653AEF5094
:103750008115B240294541016F50211941119775DA
:10376000010093856521177501001305E5AB06C6B9
:10377000EF5061131775010013054536EF50A11284
:10378000B240294541016F504116411122C406C67D
:10379000834705002A849DC397750100938585237F
:1037A00017750100130545A8EF50E10F4C40177540
:1037B000010013052548EF50010F1DA058411DE7DA
:1037C0009775010093850521177501001305C5A59F
:1037D000EF50610D1775010013054547EF50A10C1F
:1037E0002244B240294541016F502110A1679386C0
:1037F000D7036311D702977501009385A51D17752F
:103800000100130565A2EF50010A177501001305A9
:10381000E544E9B7ED07977501009385A51B17757A
:103820000100130565A06319F700EF50C107177574
:1038300001001305E5435DB7EF50E1064C401775F5
:1038400001001305E54485BF41119775010093857B
:10385000E513177501001305259D06C6EF50A10459
:10386000B240294541016F504108797122D426D2D6
:103870004AD02E842A898145B2844800714606D6F2
:10388000EFE0EFC897F7FF1F93878770DC4783D778
:103890000700231421012313F100EF206049894719
:1038A000A305F100930700193EC6FD572305A100AB
:1038B000230AF100EF20005A2686A2854800EF2057
:1038C000004AB250225492540259456182804111FB
:1038D00006C603C7C1129307F00A631BF7009307DC
:1038E000F00889451385C1122396F112EF20F06B81
:1038F000EF30A01E8145370504009707002023A361
:10390000079E97070020239C079C97070020238988
:10391000079C970700202392079C97070020239D70
:10392000079A97070020239B079A97070020239D5B
:10393000079AEF2060010145EF30C0109775010034
:1039400093854507177501001305058EEF40B17586
:10395000177501001305053AEF40F174B24029458F
:1039600041016F409178411122C406C626C293F7E7
:1039700015002E84638D070C814617F6FF1F130672
:10398000A65E8545170500200355C594EF80605954
:1039900005C5977501009385A502177501001305EC
:1039A000A588EF405170177501001305259EEF4063
:1039B000916F2945EF40717397750100938545001C
:1039C0001775010013054586EF40F16D177501006D
:1039D0001305059DEF40316D2945EF40117117F535
:1039E000FF1F1305E55A5C4505472390E700EFE00C
:1039F000B069977501009385A5FC17750100130543
:103A0000A582EF40516A177501001305A59AEF4092
:103A100091692945EF40716D930710F82386F112E3
:103A20009707002083D7C78AA386F1121385C11296
:103A3000A18391452387F112A3870112EF20F0564D
:103A400013451400B240224492444101828093F70E
:103A50002500D1CB170700200357678851C397066D
:103A60000020938626889442977701009387872ABF
:103A7000170600200346C68681451385412AEF407C
:103A80008057AA8431CD97750100938525FA176573
:103A9000010013056579EF401161A68517750100D6
:103AA0001305C592EF4031602945EF401164970737
:103AB000002023960782930710F82386F1129707B8
:103AC000002083D7E780A386F112A1832387F11218
:103AD00091458D471385C112A387F112EF20F04C59
:103AE0001345240085B793F74500B1CF97750100C2
:103AF0009385C5F31765010013050573EF40B15AAF
:103B0000177501001305458EEF40F1592945EF4027
:103B1000D15D930720F82386F11297F7FF1F83D713
:103B2000C77BA386F112A1832387F1128547A38760
:103B3000F112EF2020321385C1129145EF20F0469B
:103B40001345440001B793F785008DCF97750100A9
:103B50009385C5ED176501001305056DEF40B15460
:103B60001775010013058589EF40F1532945EF4092
:103B7000D15797F7FF1F23940776EF40A0541345C2
:103B80008400C9B593F70501A5C3854517F5FF1F47
:103B90000355A574EF00711E97750100938505E923
:103BA0001765010013054568EF40F14F17750100D7
:103BB00013050586EF40314F2945EF401153930718
:103BC00030F82386F11297F7FF1F83D70771A3867A
:103BD000F1121385C112A1838D452387F112EF20C5
:103BE000D03C13450401B9BD93F70502B5C39775E1
:103BF00001009385A5E3176501001305E562EF4019
:103C0000914A177501001305E582EF40D149294516
:103C1000EF40B14D930740F82386F11297F7FF1F4D
:103C200083D7876BA386F112A1832387F11285477F
:103C3000A387F11297F7FF1F2390076AEF208021D7
:103C40001385C1129145EF20503613450402DDBBA8
:103C500093F70504CDC797750100938525DD17659A
:103C600001001305655CEF40114417650100130561
:103C7000E57DEF4051432945EF40314783C7C112ED
:103C80001307700A6388E7041307800A6386E70650
:103C90001307600A6397E702930760F82386F1121F
:103CA00097F7FF1F83D78763A386F112A18323872A
:103CB000F1128547A38BF112B1451385C112EF2094
:103CC000D02EEF2020191345040497F7FF1F2397E8
:103CD00007608DBB930770F82386F11297F7FF1FDB
:103CE00083D7C75FA386F112A1832387F11285478B
:103CF000A388F1129945D1B7930780F8F1BF93F7E4
:103D000005080145E38007D497750100938505D226
:103D10001765010013054551EF40F13817650100A3
:103D200013054574EF4031382945EF40113C9307A6
:103D3000A0F82386F11297F7FF1F83D7E75AA386CF
:103D4000F112A1832387F1128547A387F11297F718
:103D5000FF1F239B0758EF20E00F1385C1129145E9
:103D6000EF20B02413450408F1B9411122C497751E
:103D70000100938565C72A84176501001305C54AAC
:103D800006C6EF4051324C4017750100130505E897
:103D9000EF4071312945EF40513503470400930747
:103DA000F00F6319F702977501009385E5C3176556
:103DB000010013056547EF40112F4C4017750100B6
:103DC0001305C5E5EF40312E2244B240294541019B
:103DD0006F40B131B24022444101828085CD411112
:103DE00022C417650100130525442E849775010030
:103DF000938585BA06C6EF40112BA2851775010081
:103E0000130505EDEF40312A2244B2402945410116
:103E10006F40B12D8280411122C426C22A84AE8413
:103E2000176501001305454097750100938585B717
:103E300006C6EF40512717750100130525EAEF402C
:103E400091262945EF40712A97750100938585B524
:103E500097F7FF1F23908748176501001305C53C9E
:103E6000054497F7FF1F2395974697F7FF1F239267
:103E7000874697F7FF1F239D9746EF40D12297F57E
:103E8000FF1F83D5E546177501001305A5E5EF4033
:103E900091212945EF407125054597F7FF1F23879D
:103EA0008744EF20303A97F7FF1F9387670EDC4770
:103EB00003D70700C167FD176312F7022244B7E773
:103EC0000400B240924403A3870517F5FF1F034582
:103ED000653F1306000A854541010283B240224432
:103EE000924441018280011122CC37E404005C5CE1
:103EF00006CE26CA3546977501009385A5C017756D
:103F000001001305253F829701E91765010013059C
:103F10002536EF40112E01A097F7FF1F93874761C9
:103F20003EC4B7F507008567938707C0814617F63B
:103F3000FF1F13066639E10519453EC697E0FF1FCE
:103F4000E780C0567C44194697F5FF1F9385C53717
:103F5000138581238297340017F6FF1F1306C63698
:103F6000977501009385C5ED177501001305C5EE22
:103F7000EF30F060AA8415C997750100938505AAF2
:103F8000176501001305452AEF40F111A685177545
:103F90000100130525B8EF4011112945EF40F11438
:103FA000F2406244D24405618280EF90D077177569
:103FB0000100130525ADEF20307CEF601066EF00A7
:103FC000910417F5FF1F130565F9EF00617117756F
:103FD0000100130525ACEF00D104AA84EF30C056D0
:103FE000EFC0E029EF203124EF40E072EF301036CF
:103FF000EFE0D00697750100938545A21765010093
:104000001305852289C8EF40110AA685177501009E
:10401000130585B249B7EF40110917750100130563
:10402000E5B3EF4051082945EF40310CEFE06069FE
:10403000EFB0A0135DC9854537050400EF10D0101F
:10404000977501009385859D176501001305C51DB2
:10405000EF407105177501001305C5B1EF40B104BC
:104060002945EF40910897F7FF1F83C71728B9EF3D
:10407000A303010083274417130671008545130528
:104080005030829797750100938545991765010017
:1040900013058519EF403101177501001305C5AFF0
:1040A000EF4071002945EF40510497750100938559
:1040B000E5961765010013052517EF40C17E1775BA
:1040C0000100130565B3EF40017EC1BD9775010086
:1040D0009385C5941765010013050515EF40A17C74
:1040E000177501001305C5AE65BF9775010093856F
:1040F000E5921765010013052513EF40C17A177586
:104100000100130525BFEF40017A2945EF40E17D0D
:104110000145EF20301351BF411122C437E40400A0
:104120008327041A06C68297832704081705000010
:104130001305A583829797F7FF1F2385A71817F507
:10414000FF1F1305E5E4EF10D07D713B2244B24020
:1041500041016F20E040411122C491462A84138618
:1041600001219D652D4506C697E0FF1FE7800034BD
:10417000B7F7070003C70701A5476313F70001A0BE
:104180009306001001469D65254597E0FF1FE780D7
:10419000E031238881202244B240914613860121D8
:1041A0009D652945410117E3FF1F67002330B7E7ED
:1041B00004001171FC47CED79389C112A2DDCAD980
:1041C00086DFA6DB2E8432892E86AA854E858297CD
:1041D00083C70900130780029387E70793F7F70F58
:1041E0006364F774176701001307070C8A07BA970F
:1041F0009C43BA9782878D479775010093854584C4
:104200001765010013054502630BF400EF40A16937
:104210001765010013058541EF40E168FDA2EF40FD
:104220008168176501001305E541EF40C167294525
:10423000EF40A16B930720F811469385C1124A8580
:104240002386F112A3870112EFF02FE22A840DC515
:10425000976501009385C57E176501001305C5FCB0
:10426000EF406164A2851765010013056541EF40C9
:1042700081632945EF406167976501009385457C1F
:1042800017650100130545FAEF40E161176501006C
:1042900013054540EF4021612945EF400165416527
:1042A000930730FA05469385C1127D152386F112D6
:1042B000EFF0AFDB2A840DC5976501009385457843
:1042C00017650100130545F6EF40E15DA28517650E
:1042D00001001305E53AEF40015D2945EF40E1603B
:1042E000B7E70400BC4F0566130606C8A14517F5DD
:1042F000FF1F034525FD8297FE506E54DE544E5934
:10430000BE591161828091476301F40297650100F3
:104310009385057317650100130505F1EF40A1585A
:10432000176501001305453AC5BDB7E70400FC4F0A
:10433000914517F5FF1F0345E5F882979765010042
:104340009385057017650100130505EEEF40A15533
:104350001765010013050539EF40E1542945EF4089
:10436000C158EF10302F9145E1A285476301F40257
:10437000976501009385C56C176501001305C5EAB3
:10438000EF406152176501001305453771B597F786
:10439000FF1F239427F5B7E704000566BC4F1306FB
:1043A00006C8C145A9B78D476301F40297650100AE
:1043B0009385056917650100130505E7EF40A14ED8
:1043C000176501001305453581BD930740F8114677
:1043D0009385C1124A852386F112A3870112EFF05B
:1043E000CFC82A84E30A05F09765010093854565E7
:1043F00017650100130545E3EF40E14AA285176503
:1044000001001305E527EF40014A2945EF40E14D42
:10441000E5B59147E31CF4F8B7E70400FC4F9305BA
:10442000000217F5FF1F0345E5E982979765010034
:104430009385056117650100130505DFEF40A1466F
:10444000176501001305C52E01BF894763E1870287
:10445000976501009385C55E176501001305C5DCEE
:10446000EF406144176501001305C52D75B383C482
:10447000E11283C7D112976501009385655CA204A0
:1044800017650100130545DADD8CEF40C141A285B7
:10449000176501001305452CEF40E140C204294592
:1044A000EF40A144C1849305D4FF93960401C182D7
:1044B0004A8693F5F50F1385F112EF10604CE35D1A
:1044C00090E2930750F82386F11283C739002286C1
:1044D0009385C11285074A85A387F112EFF0EFB8E3
:1044E0002A84E30B05E09765010093856555176500
:1044F0000100130565D3EF40013BA285176501005C
:104500001305057C09B7894763E1870297650100B8
:104510009385055317650100130505D1EF40A138B8
:104520001765010013050525C5B9EF10B012A28566
:104530001385C112EF206027C1B38D476301F402D8
:10454000976501009385C54F176501001305C5CD1B
:10455000EF406135176501001305852375B9B7660E
:1045600002000146B7750200054597E0FF1FE7808E
:10457000E0F3930760F82386F112A38701129307F3
:10458000002623A8F112E57793870721239AF112D9
:104590003146A38BA1129385C1124A85238B011248
:1045A000EFF0AFAC2A84E30905D497650100938549
:1045B000254917650100130525C7EF40C12EA285C7
:1045C000176501001305451E3DBDB1476301F402A7
:1045D000976501009385C546176501001305C5C49D
:1045E000EF40612C176501001305C51D35B1B7E714
:1045F0000400FC4F9305000417F5FF1F034585CC0D
:104600008297EF103005B14525B7914763E18702E6
:10461000976501009385C542176501001305C5C064
:10462000EF406128176501001305851BF5B683C4AB
:10463000011383C7F112A204DD8C8E04B767020058
:104640006D14BE942286A685176501001305851A90
:10465000EF406125B7E70400FC47228693851113DC
:104660002800829793160401C1823000A68509456F
:1046700097E0FF1FE78080E32A8419C517650100D2
:1046800013050519EF40E136930770F81946938535
:10469000C1124A852386F112A3888112EFF0EF9CA4
:1046A0002A84E30B05C49765010093856539176576
:1046B0000100130565B7EF40011FA28517650100D2
:1046C0001305051689B399476301F4109765010036
:1046D0009385053717650100130505B5EF40A11C4B
:1046E000176501001305451505BE914763E1870273
:1046F000976501009385C534176501001305C5B2A0
:10470000EF40611A176501001305851431B683C4A3
:10471000011383C7F112A204DD8C8E04B767020077
:104720006D14BE942286A6851765010013058513B6
:10473000EF406117B7E70400FC4722869385111309
:104740002800829793160401C1823000A6850D458A
:1047500097E0FF1FE78080D52A8419C517650100FF
:1047600013050512EF40E128930780F81946938559
:10477000C1124A852386F112A3888112EFF0EF8ED1
:104780002A84E30B05B6976501009385652B1765B1
:104790000100130565A9EF400111A285176501000D
:1047A0001305450F8DB199476301F4029765010028
:1047B0009385052917650100130505A7EF40A10E94
:1047C000176501001305850E81BCB7E70400FC4F97
:1047D0009305000417F5FF1F0345C5AE8297EF1040
:1047E00060679945B1B38D476301F4029765010095
:1047F0009385052517650100130505A3EF40A10A60
:10480000176501001305050C01BC176501001305B0
:10481000650CEF40011E0145EFE00FBB0D45EFF0C9
:104820009F93294597E0FF1FE780E0B097E0FF1FC7
:10483000E78000A2D1B499476301F40297650100B3
:1048400093850520176501001305059EEF40A1051E
:10485000176501001305C508C1B203C7111383C74B
:10486000011322075D8F9166BA96C2061166C18256
:104870001306F6EF8D476363D60297E7FF1F938712
:1048800027719C4B03C6F1129386C70039C603D625
:1048900007005DCA8907E39CD7FE89471307A0F884
:1048A00011469385C1124A852386E112A387F1122E
:1048B000EFE0BFFB2A84E30105A49765010093851F
:1048C00025181765010013052596EF30D17DA285C7
:1048D00017650100130505023DB603D60700630204
:1048E000E60A8907E39BF6FE8D474DBF91476302B9
:1048F000F402976501009385A5141765010013055F
:10490000A592EF30517A17650100130525006FF06D
:10491000BF90B7E70400FC4F9305000817F5FF1F91
:104920000345459A829735BC9765010093854511EB
:10493000176501001305458FEF30F176176501000B
:10494000130545FE6FF05F8D2390E70017E5FF1F0D
:1049500013050564EFD0F074976501009385450E4B
:10496000176501001305458CEF30F17317650100E1
:10497000130545FCEF3031732945EF30117781473E
:1049800031BF2390070017E5FF1F13056560EFD0C7
:104990005071976501009385A50A176501001305FD
:1049A000A588EF30517017650100130525FAD9B7B6
:1049B000411122C406C6834705002A849DC397651A
:1049C00001009385A503176501001305E585EF3008
:1049D000916D4C40176501001305C534EF30B16C83
:1049E00079A85841B707CF009387777D631CF704F8
:1049F0009765010093858500176501001305C58241
:104A0000EF30716A1C448356E4008355C40003C62A
:104A100007001765010013056532EF30D16829459D
:104A2000EF30B16C0356E40097F7FF1F83D7478C34
:104A30006383C7088355C40008442244B24041013F
:104A40006FF0EFF6B707CC009387777D631FF7020F
:104A500097650100938585FA175501001305C57CFC
:104A6000EF3071641C448356E4008355C40003C6D0
:104A70000700176501001305652CEF30D162224451
:104A8000B240294541016F305166B707CE00938788
:104A9000777D6302F70297650100938525F6175528
:104AA000010013056578EF3011604C401765010077
:104AB0001305051E25B7B240224441018280B7E7A5
:104AC00004004111FC4726C29384C1122E8606C6FB
:104AD00022C42E84AA852685829797650100938536
:104AE000E5F71755010013052574EF30D15B83C539
:104AF000C1121765010013056598EF30D15A294599
:104B0000EF30B15E83C704003D479387070693F7F4
:104B1000F70F6360F76217670100130727838A079F
:104B2000BA979C43BA9782879D476303F4029765BF
:104B300001009385A5F2175501001305E56EEF30CE
:104B40009156176501001305E593EF30D1555DAA25
:104B500083C7D112A5CF83D7011303D7E112C207B0
:104B6000D98F17E7FF1F232FF77683C76400976558
:104B700001009385A5EE175501001305E56A17E7B7
:104B8000FF1F230FF774EF30115297E7FF1F938732
:104B900067758C4317E6FF1F03468674176501008F
:104BA00013050590EF3031502945EF301154A3869D
:104BB00001122244B2409244930700F82386F11276
:104BC0009D451385C11241016F10303EEF30205BCF
:104BD0002397A112935705012A842388F112935732
:104BE00085010145A388F112EF30205A2389A112D3
:104BF00097650100938585E6175501001305C56289
:104C0000EF30714A03C62113A28517650100130511
:104C1000A58A49BFCD476301F402976501009385DA
:104C2000E5E31755010013052560EF30D1471765FF
:104C300001001305E58911BF37E404007C444146B7
:104C40009385D1121385412A829783C7E11303C745
:104C5000D113A20703238405D98F17E7FF1F231061
:104C6000F7681306000A89452244B240924417E5CA
:104C7000FF1F03452565410102838D476301F4024F
:104C800097650100938585DD175501001305C5590A
:104C9000EF30714117650100130545997DB503C4D7
:104CA000E11283C7D11297650100938525DB2204A9
:104CB00017550100130545575D8CEF30D13EA28595
:104CC0001765010013054582EF30F13D2945EF30AE
:104CD000D1410D469385C1122285EFE01FB9AA8408
:104CE0000DC997650100938565D717550100130518
:104CF000A553EF30513BA6851765010013050580CC
:104D0000EF30713A2244B2409244294541016F305C
:104D1000D13D97E7FF1F2392875CB7E70400116638
:104D200003A38705130606E891453DBF8D47630140
:104D3000F40297650100938565D2175501001305AC
:104D4000A54EEF305136176501001305E59CF5BB04
:104D500003C4E11283C7D11297650100938505D082
:104D60002204175501001305254C5D8CEF30B1333B
:104D7000A285175501001305A579EF30D1322945D9
:104D8000EF30B1360D469385C1122285EFE0FFADBD
:104D9000AA840DC197650100938545CC1755010084
:104DA00013058548EF303130A685175501001305EE
:104DB0006577B9B797E7FF1F23908752B7E70400DD
:104DC000116603A38705130606E89305000269BD73
:104DD000894763E1870297650100938525C81755C8
:104DE000010013056544EF30112C17650100130510
:104DF0006595A1BB83C4E11283C7D11297650100F9
:104E00009385C5C5A204175501001305E541DD8C46
:104E1000EF307129A6851755010013052572EF3073
:104E200091282945EF30712C22869385C112268561
:104E3000EFE0BFA32A84630D0530976501009385D9
:104E4000E5C1175501001305253EEF30D125A28598
:104E5000175501001305C56F65B58D476301F40251
:104E600097650100938585BF175501001305C53B64
:104E7000EF3071231765010013058591F9B103C463
:104E8000E11283C7D11297650100938525BD2204E5
:104E900017550100130545395D8CEF30D120A285EF
:104EA000175501001305056CEF30F11F2945EF3050
:104EB000D1230D469385C1122285EFE01F9BAA8462
:104EC0000DC197650100938565B91755010013055C
:104ED000A535EF30511DA685175501001305C5698D
:104EE00005B597E7FF1F239B873EB7E704001166D0
:104EF00003A38705130606E893050004B5B391479D
:104F000097650100938585B5175501001305C531D7
:104F100063E98700EF303119176501001305458CEF
:104F20002DB1EF305118A2851755010013054566C4
:104F3000EF3071172945EF30511B83C4E11283C74D
:104F4000D112A204DD8C22869385C1122685EFE062
:104F5000DF912A8449C197650100938525B01755D3
:104F600001001305652CEF301114A28517550100BF
:104F70001305456371B3914763E1870297650100AB
:104F80009385C5AD175501001305052AEF30B11102
:104F9000176501001305C58B4DBE83C4E11283C79D
:104FA000D112A204DD8C22869385C1122685EFE002
:104FB000DF8B2A840DC197650100938525AA1755BB
:104FC000010013056526EF30110EA285175501006B
:104FD0001305855E35B397E7FF1F2391973031B7EF
:104FE0008D476301F40297650100938525A7175546
:104FF000010013056523EF30110B17650100130540
:10500000658CA1B683C7E112A20703C5D1120D4674
:105010009385C1125D8DEFE05F852A84630A0512D6
:1050200097650100938585A3175501001305C51FDA
:10503000EF307107A2851755010013052559C9B135
:1050400099476301F40297650100938525A11755DF
:1050500001001305651DEF301105176501001305EB
:105060002588E5B403C4E11283C7D1129765010016
:105070009385C59E2204175501001305E51A5D8C22
:10508000EF307102A2851755010013052555EF3049
:1050900091012945EF30710519469385C11222858A
:1050A000EFE0AFFCAA840DC1976501009385059BD5
:1050B0001755010013054517EF30E17EA6851755FA
:1050C00001001305A5522DB997E7FF1F239E8720E6
:1050D000B7E70400116603A38705130606E89305E6
:1050E000000859B6854797650100938525971755A0
:1050F0000100130565136309F400EF30C17A1755F9
:1051000001001305E54F91B4EF30E1791755010027
:1051100013058550EF3021792945EF30017D224478
:10512000B240924497E7FF1F239B071A41016F206B
:1051300070799765010093856592175501001305F5
:10514000A50EEF304176175501001305A57DF5BA80
:10515000B2402244924441018280411106C622C4D9
:10516000EFE0AFF09377F50F95CB2A8497650100B8
:1051700093854590175501001305050BEF30A1727B
:105180009375F40F17650100130585B3EF30A17116
:105190002244B240294541016F302175B24022447A
:1051A000410182801D71A6CA86CEA2CCCAC893F7DF
:1051B0001500AE8495CBAD67371700409387A7AA3B
:1051C0001CC3B7E70400BC4F13060019854517E55B
:1051D000FF1F0345850A829713C51400F6406644F5
:1051E000D64446492561828093F785006389071E6E
:1051F000856617E7FF1F1307271017E6FF1F130623
:1052000026108147938686898355070063F5B6008B
:10521000850793F7F70F0907E318E6FE638C071A73
:10522000854717E7FF1F2304F70C97E7FF1F83C786
:10523000470C850717E7FF1F230DF70A17E7FF1F26
:105240000347370B05071377F70F97E7FF1FA38275
:10525000E70A91476310F70297E7FF1F83C76709C3
:1052600091C7854797E6FF1F2383F60897E7FF1F3F
:1052700023810708B7670E02938757CC3EC6854740
:105280002308F10097E7FF1F83D78706A308F100E3
:10529000A1832309F10097E7FF1F83D7E705A3093F
:1052A000F100A183230AF10097E7FF1F83D7E704EA
:1052B000A30AF100A183230BF10097E7FF1F83D717
:1052C000E703A30BF100A183230CF10097E7FF1F75
:1052D00083D7E702A30CF100A183230DF10097E728
:1052E000FF1F9387C70083C707004545A30DF10043
:1052F00097E7FF1F83C707009386170017E6FF1F76
:10530000230AD6FE230EF1006976C167FD17814698
:1053100005066C00B69583C50500AD8FA14513F851
:105320001700858363050800B18FC207C183FD158F
:10533000FDF58506E39FA6FCA30EF100A183230FD4
:10534000F10097E7FF1F83C767FA89CF9147631B77
:10535000F7004D466C001305201097E7FF1FA38A46
:1053600007F8E53B97E7FF1F83C727F8A1C393051D
:10537000000317E8FF1F035888F897E7FF1F83D73C
:10538000E7F717E7FF1F035747F797E6FF1F83D697
:10539000A6F6176601001306A6A00810EF30216FCD
:1053A00093150501C1810810EF102040EF306165B1
:1053B000130650063366C502B7E70400BC4FA1458B
:1053C00017E5FF1F034565EB1306E62E829713C50D
:1053D000840029B597E7FF1F238B07F085B593F766
:1053E000250063810710170400200344A44D97078C
:1053F000002083C7374D22045D8CB1679387C75562
:10540000631AF40497E7FF1F83C747EE8DCF170990
:1054100000200349694B9707002083C7D74A220918
:10542000176501001305C5983369F900EF30A147EE
:1054300017E6FF1F034696EB9705002093858548E6
:105440004A85213B3DA0176501001305E596EF3025
:10545000415A05A0B5679387D755631AF40297E5BB
:10546000FF1F83C5B5E8170500201305A545EF10FC
:10547000C033A2851765010013050597EF30A142DF
:1054800013C5240097E7FF1FA38207E681BBAD6722
:105490009387B7556313F4029707002083C7D74259
:1054A000A2079705002083C52542DD8D1765010001
:1054B00013054591EF30213F6DBFA9679387A7552D
:1054C0006317F400176501001305059149B741659D
:1054D00017E6FF1F034696E1970500209385853E5A
:1054E0007D1585B793F745000145E38907CE17651C
:1054F00001001305A590EF30C14FEF10C05F13C539
:105500004400E9B9411122C437E404005C5C06C6DA
:105510003546975501009385E55E17650100130533
:1055200065DD829701E9176501001305E58FEF300E
:10553000414C01A08327041C82972A840545EF80F3
:10554000F01DEF109111EF10C16FEF7070522285B6
:10555000B2402244410182801567B717004013070B
:10556000575598C3D8439D66558FD8C3D843FD7609
:10557000758FD8C3D8431367F70FD8C335671307A0
:10558000C7CC98C38280B7C7A55A01119387C73388
:105590003EC497E7FF1F83C757D53EC6B7F707003E
:1055A00003C7070106CE22CCA5476313F70001A06D
:1055B0001164930504F0930600100146254597D029
:1055C000FF1FE780A0EE3000930504F0A1462945B7
:1055D00097D0FF1FE78080ED97E5FF1F83C5F5D0CB
:1055E0001765010013054582EF30E12BF24062445C
:1055F0000561828001119165A1463000938505F017
:105600002D4506CE97D0FF1FE78040EA2247B7C757
:10561000A55A9387C7336312F702B24517550100A5
:105620001305C573B335B00097E7FF1FA38FB7CA43
:10563000EF306127F2400561828085478545175527
:1056400001001305E57317E7FF1FA300F7CAEF304A
:105650008125153FC5B741111305800406C622C434
:1056600026C297D0FF1FE78080A485457D55EFD0E7
:105670004FBB85457D55EFD02FC53714004083279C
:10568000840C8D451305000893E707082324F40CC8
:10569000EFD08FC3EFD0AFDFEFD0BFE4EFD03FF854
:1056A0009535893FEFE05FA78D450D65EFD0CFC100
:1056B000170500201305053185671CC59304840C6C
:1056C00089671304C40C04C140C144C500C95CC946
:1056D00037E404008327841E97E4FF1F9384E4B912
:1056E0008297FD2A0D2C8327040817050000130557
:1056F000A5AB82972380A4003C4C1306006485452B
:1057000082973C4C03C5040013060032A1458297E2
:10571000A13597D0FF1FE780A0CC01458280B7F765
:10572000070003C70701A547AE866316F7009397E6
:10573000450191C301A0AA850146254517D3FF1F46
:105740006700C3D64111B2862E86AA852D4506C6AE
:1057500097D0FF1FE78080D5B2400145410182808C
:105760009307000463E6C7021D71A2CC2A840808CF
:1057700086CE32C6EF30C107B2461008A285294551
:1057800097D0FF1FE78080D2F64066442561828073
:1057900039558280411122C426C206C6B71700407F
:1057A0003147AA84238CE704014405041374F40FE1
:1057B000EFC04FF9E39B84FEB24022449244410182
:1057C0008280B717004003A7C70CA166558F23A698
:1057D000E70C1377150015C303A7870C8966558F4F
:1057E00023A4E70C09893717004019CD8327870CBC
:1057F0009166D58F2324F70C828003A7C70C896696
:10580000558F23A6E70CF9BF8327C70C9166D58F68
:105810002326F70C8280371700408327C70CA16628
:10582000D58F2326F70C8280411122C406C626C2DA
:1058300093F725002E84ADCF094597E4FF1F83C45D
:1058400024AC893FB71700403147238CE704EFC0F1
:105850006FEF860497E7FF1F938707AAA697239009
:10586000A70017E5FF1F0345A5A905051375F50F4B
:1058700097E7FF1F2386A7A88D4763E4A702913708
:10588000B7E70400BC4F0946894517E5FF1F0345EC
:10589000D59E829713452400B24022449244410190
:1058A0008280B7E70400BC4F130620038545F1BF93
:1058B00093F715000145EDD3B93F014597E7FF1F69
:1058C000238007A4FD3DB7E70400BC4F0946894586
:1058D00017E5FF1F0345759A8297134514006DBFA6
:1058E000411193050010054506C6EFD04FA881452C
:1058F00013050010EFD0EF928D453965EFD0CF9CA6
:1059000089450D45EFC00FDD0145653D2937B240A2
:105910001145410141B5411122C437E404008327F8
:10592000040806C617050000130545F0829797E79F
:10593000FF1FA384A794032384052244B2401306C7
:105940002003854541010283411126C2AE848D4565
:1059500022C406C62A84EFD02F97B717004099C8F3
:1059600003A5C70C418D23A6A70CB2402244924444
:105970004101828003A5870C418D23A4A70CF5B7B4
:105980008347050003471500A207D98FC207617737
:10599000C187130727206397E70083452500370554
:1059A00004005DB7828097E7FF1F9387A795184291
:1059B0009C4383D645000345070083C5C7000356B3
:1059C00046006396A50083D5E700638DD5020111DB
:1059D00006CE2386A7002397D700B705CF00DC4B60
:1059E0009385757D05077D162EC2230001003AC4FC
:1059F0002316C1002317D10099C30A858297F2406C
:105A0000056182808280DC4DDC4B81CFB7E70400EA
:105A1000904503A38705914517E5FF1F0345C58EF4
:105A2000028382806D713C083EC6B707E5002322E1
:105A300091103EC8AA843C083285232611103ECA24
:105A400023248110232021112E89EF20F06C2A8439
:105A50009755010093858545174501001305C57CC1
:105A6000EF207164A2851755010013052554EF201E
:105A700091632945EF207167B705CB009385757D4C
:105A80006800EF100049A2856800EF20905E014792
:105A900081467000CA852685EF10206815C52A84C6
:105AA0009755010093858540174501001305C5777B
:105AB000EF20715FA285175501001305E54FEF2018
:105AC000915E2945EF2071628320C110032481106B
:105AD00083244110032901105161828097E7FF1F41
:105AE0009387478218429C43797122D406D6034893
:105AF000070083C807012A8483D645000355460062
:105B00006396080183D82701638DD8022388070193
:105B100005072399D7003708CC00DC4B1308787DA4
:105B20003ACC1307F5FF42CA23080100231EE10007
:105B3000231FD10099C7080832C62EC48297324667
:105B4000A2452285C535B2502254456182806D71CF
:105B50003C083EC0B707E5003EC23C083EC42326D1
:105B600011102324811023229110231701002318E0
:105B7000010023190100231A0100231B010097D7FC
:105B8000FF1F83D7E74499E3C167FD172316F10090
:105B900097D7FF1F83D7E74391EB97D7FF1F9387D3
:105BA00067769C439C43DC4783D7070017D4FF1FCD
:105BB00013040442584C2317F10083574400484B08
:105BC0002318F10005ED97550100938525351745FC
:105BD000010013056565EF20114D175501001305F0
:105BE0002535EF20514C2945EF2031508320C1103D
:105BF00003248110832441105161828097D7FF1FB5
:105C000083C7773D89EBB7E70400BC5782975C4CAC
:105C100023AA0700E1BFFD1797D6FF1FA38DF63A11
:105C200003560701834704014C470A85230BF10003
:105C3000EF20504297D7FF1F9387C76C9C430147C3
:105C4000814688430A866C00EF10204DAA841DC946
:105C5000975501009385852C174501001305C55CF8
:105C6000EF207144A685175501001305252DEF205F
:105C700091432945EF207147584CB7E70400BC57C2
:105C8000484B69B797D7FF1F83C7F734F5D7B7E7F6
:105C90000400BC4F1044854517D5FF1F0345C5665A
:105CA0008297A9B75C4EDC4BA9CBA1C9411122C494
:105CB00017450100130545572E849755010093851C
:105CC000252406C6EF20313EA28517550100130595
:105CD0002529EF20513D2945EF203141B7E7040048
:105CE0002244B24003A3870517D5FF1F0345C561B2
:105CF000130640069145410102838280411122C46E
:105D000017D4FF1F1304C42A1C4C06C689C7DC43E2
:105D100099C34C488297584CB7E70400BC57484B8E
:105D200082975C4CB240224423AA07004101828042
:105D300017D7FF1F13078754834707009306F00BFD
:105D4000850793F7F70F63E9F60097D6FF1F2387C0
:105D5000F652034507008280930700F8FDB783578A
:105D600045006386070E01114AC817D9FF1F1309A2
:105D7000292652C4032AC90106CE22CC03274A0190
:105D800026CA4EC656C2F15721EF1307D00DFD5754
:105D90006368C704B7E9040083A709072A841305C9
:105DA000860042054181B284AE8A8297232AAA00E6
:105DB0000325C9015C499DEF975501009385451264
:105DC0001745010013054546EF20F12D1755010039
:105DD00013054521EF20312D2945EF201131DD57E5
:105DE000F2406244D2444249B249224A924A3E8534
:105DF0000561828093874400B705CF002319F50021
:105E00009385757D3105EF10C0100325C9018345C9
:105E100064003105EF20F0250325C9012686D685CB
:105E20003105EF2030237146A2854A85EF20511CB1
:105E3000504419CA83A78905854517D5FF1F034517
:105E4000A54C8297814769BFEFF07FD0E5BFFD5732
:105E50003E858280411126C297D4FF1F9384441748
:105E6000D84C22C437E404003C54484B06C6829701
:105E7000DC4C0323C4052244B240924423AA070009
:105E800017D5FF1F03454548854541010283411150
:105E900026C297D4FF1F9384E4469C4006C622C4C2
:105EA0004AC0C9CBDC43D9C75CC12300B5002A84F2
:105EB00097550100938505FE174501001305C5366A
:105EC000EF20711E2945EF2051229C4023A407009A
:105ED00023A2070097D7FF1F9387870DDC4FDC4B6A
:105EE00081C72955EFF09FE197D7FF1F9387470E92
:105EF000DC4FDC4B91C3B93F37E904008327C90568
:105F0000894517D5FF1F0345254082978327C9057B
:105F1000914517D5FF1F0345253F82979C4003A35A
:105F200047016309030022852244B240924402499A
:105F300041010283B24022449244024941018280DD
:105F40000111328506CE22CC26CA2E84EF20D01C29
:105F5000AA8497550100938525F71745010013057D
:105F6000A52CEF20511403078400035664008355C9
:105F70004400A6861755010013058500EF20B112D5
:105F80002945EF20911697D7FF1F83C7C702639853
:105F900097000145EFF09FD681450A85CD3DF2403F
:105FA0006244D244056182806D71232481102326CE
:105FB00011102322911093F745002E846385071258
:105FC0003C083EC0B707E5003EC23C083EC423176C
:105FD00001002318010023190100231A0100231BCB
:105FE000010097D7FF1F83D7A7FC99E3C167FD176F
:105FF0002316F10097D7FF1F83D7A7FB91EB97D705
:10600000FF1F938727309C439C43DC4783D70700BF
:1060100017D7FF1F1307C7F92317F100544F8357F2
:1060200047002318F100DC4A95EF9755010093854E
:10603000E5ED174501001305251FEF20D106175583
:1060400001001305E5EEEF2011062945EF20F109C7
:10605000134544008320C110032481108324411080
:106060005161828097D7FF1F83C7F7F42555ADCBC9
:10607000FD1717D6FF1FA300F6F403D606018347CA
:106080000701CC460A85230BF100EF20A07C97D7AF
:10609000FF1F938727279C4317D7FF1F130747F13D
:1060A00097660100938646C488430A866C00EF1009
:1060B000C006AA8451DD97550100938525E5174553
:1060C000010013056516EF20017EA6851755010016
:1060D0001305C5E6EF20217D2945EF201101268516
:1060E000EFF0DFC1B5B793F725009DC3B7E7040014
:1060F000BC4741468145280882972555EFF01FC0CF
:1061000028089305F00FEFF09FD81345240099B7A6
:1061100093F7150001459DDFEFF07FA313451400B1
:1061200015BF5C4D411106C688C317D7FF1F232B2F
:10613000F71CB7E7040083A707081705000013053D
:10614000E5E68297B24097D7FF1F238FA71A014534
:106150004101828001119307700F2316F10006CED2
:1061600097D7FF1F83C7171B8DE7B7E7040083A7E7
:10617000870D17D6FF1F0346E6106C0017D5FF1FCB
:106180000355851982973335A00097D7FF1FA38346
:10619000A718F2400561828041119397050122C43E
:1061A00006C626C2C1872E8463D40702B7E4040062
:1061B000FC5417D5FF1F0345E50C829719C1BC5449
:1061C00082972165218DB240224492444101828010
:1061D00093F715008DC7B7E7040083A7471A17D6B2
:1061E000FF1F1306E6E0970500209385A58217D5CB
:1061F000FF1F03452509829713451400E9B793F75C
:10620000250099CFB7E70400BC4F13060064894509
:1062100017D5FF1F0345050782971345240065B76F
:1062200093F785009DC7B7E7040003A8871A1307F3
:10623000401F97D7FF1F83C7E70481461306400618
:10624000994517D5FF1F0355250D02981345840066
:106250009DBF93F745000145BDD7B7E4040083A770
:10626000041817D5FF1F0355250B8297BC4C130646
:106270000064914517D5FF1F0345C500829713455C
:10628000440091B797D7FF1F83D707096396A702EA
:1062900017D7FF1F2313B70817D7FF1F2310C708EF
:1062A00017D7FF1F231DD7062E861755010013058C
:1062B00025E9BE856F20215F175501001305C5E94B
:1062C0006F20217303574500011106CE22CC97D7CA
:1062D000FF1F83D76704175501001305E5E7631017
:1062E000F706C167F91717D7FF1F2327F70237E40F
:1062F000040097D7FF1F23A307027C4C894517D5BD
:10630000FF1F034525F882977C4C914517D5FF1F49
:10631000034545F7829797D7FF1F83C717FD95C79A
:106320008547A307F100832744171306F10085452D
:1063300013055030829717550100130565D7EF20DC
:10634000416BF24062440561828097D7FF1F83C78B
:10635000E7F917550100130565DAF5F38547A3073B
:10636000F100832744171306F100854513055030CB
:106370008297175501001305E5D5D1B77D159547CF
:1063800063EFA71817570100130747CF0A053A957F
:106390001C41011122CC06CE26CABA972E848287D0
:1063A000175501001305C5DBEF20A16405A203C743
:1063B00025009947631CF7002E8529378345640023
:1063C000175501001305C5DAEF20E14D97D7FF1FE0
:1063D000238D07F017550100130545DBF1B703C7FF
:1063E000250095476317F702C16717D7FF1F0357AB
:1063F000A7F2F91703D5A5006307F702B7E7040072
:1064000083A7C717829717550100130525D9EF20D9
:10641000415E854717D7FF1F2309F7EC1755010089
:10642000130545DA51B797D7FF1F2397A7EE83D7F8
:10643000E500B7E40400096617D7FF1F231FF7EC38
:1064400083D705011306069017D5FF1F034585E383
:1064500017D7FF1F2314F7EC83D72501A14517D7C2
:10646000FF1F231EF7EABC4C8297BC4C1306006446
:10647000914517D5FF1F0345E5E082970356E400D9
:106480008355A40017550100130585D2EF20A141C3
:1064900049B7175501001305A5D339B783C52500A2
:1064A0009147639AF5028547175501001305C5D337
:1064B000A307F100EF20E153B7E7040083A74717D4
:1064C0001306F1008545130550308297F24062446F
:1064D000D244056182809947639EF5002285EFF0E2
:1064E0007FDE8345640017550100130565C8EF2062
:1064F000813BE9BF9547639FF5008347140017551B
:106500000100130565CEE39107EA17550100130555
:1065100065CF59BD17550100130545CFC9BF82800E
:10652000411122C417D4FF1F130444AEAA86175684
:106530000100130626B62285C14506C6EF20215567
:106540000357440097D7FF1F938747AD2393E70076
:10655000035764002394E700B24022444101828043
:10656000130101DC232C812237E404008327040873
:10657000232E1122232A912223282123232631236B
:1065800017050000130585C1829717D9FF1F13094E
:1065900069CF994785442300A9002318F102975534
:1065A0000100938525B893074006174501001305A0
:1065B000A5C72314F112230C910097D9FF1F9389CB
:1065C00029D3EF20412E83D509001755010013056B
:1065D00025ADEF20412D2945EF20213103D50900BC
:1065E000813783274417300885451305503082973B
:1065F0008327441717D6FF1F130646A2CD45130560
:10660000703082978327441717D6FF1F1306069F03
:10661000B5451305603082978327441710188945C4
:1066200013051031829783274417301289451305CB
:106630002031829783274415930500050D458297E5
:106640008327441593050005114582972306910081
:1066500023089100230C9100232401122308010236
:106660008327841630129145130570408297832743
:106670008416700085451305004082978327841691
:10668000100885451305104082978327841610183B
:106690008545130520408297832784163008854559
:1066A000130550408297832704157D5582978327D1
:1066B00044137D5582977D55EFC05F9F8327440C1F
:1066C0008297EFC0CFFC8327841417D6FF1F1306D1
:1066D000E693D545014582971306700F814508184A
:1066E000EFB0EFE28947554681452808230891021B
:1066F0002306F100EFB0AFE18D471306700F81451F
:106700002812230CF100EFB08FE091472304F1121F
:1067100097D7FF1F938787B7984383C74700101801
:106720009305700F01453AC8230AF100EFC03F9F5F
:10673000700085450545EFC09F9E3008D545094549
:10674000EFC0FF9D30129305700F0D45EFC03F9DC8
:10675000100895451145EFC09F9CC16717D7FF1FD3
:10676000130787BBF9171CC32322070017D5FF1F88
:10677000130505B1EFC09F998327C41D17D5FF1FCF
:106780001305C5B882973C480345090085458297A3
:106790008320C1230324812383244123032901234C
:1067A0008329C1221301012482800111C16726CAF5
:1067B00006CEAA8422CC17D5FF1F0355E5B5F917DD
:1067C0006306F50437E40400832784122E8623151C
:1067D000B10001478146ED4582977C440356A100F4
:1067E0002AC6A68582972C0017D5FF1F0355C5B270
:1067F000EFC05F9E01CD175501001305A593EF2053
:10680000411F8327C412ED4528008297F24062445D
:10681000D24405618280397126DA06DE22DCB28438
:1068200009C989476303F502F2506254D2542161C9
:106830008280175501001305659F2E84EF20611B90
:10684000A6852285EFE0AFA7C5B7B7E70400FC47F0
:10685000280882970344810183479101175501005D
:106860001305859D22045D8CEF20A118B1679387E5
:10687000C7556319F40297D7FF1F83C727A781CF96
:106880008347C1010345B1012686A2072C085D8D0F
:10689000EFE0BF8C51BF174501001305E551EF2014
:1068A000411559B7AD679387B755631FF400834708
:1068B000D1018345C101174501001305A550A20769
:1068C000DD8DEF10517E8DB7B5679387D755E30DFA
:1068D000F4F4A9679387A7556317F40017450100DF
:1068E0001305854F6DBFB9679387E755631EF4089D
:1068F0008D47E3FB97F20344B10197D4FF1F83C494
:10690000D49E9755010093852591B337800017D702
:10691000FF1FA30CF79C09C4975501009385859030
:106920001755010013050592EF10F17797D7FF1F58
:1069300083C7B79B63849700EFE0FFC497D7FF1F1F
:1069400083C7B79A9DC385472302F100B7E70400C8
:1069500083A7471750008545130550308297175578
:1069600001001305258FEF20C1089967938757EE23
:106970002312F1009145854748002303F100A3034A
:106980008100EFF09FE24DB5BD671387F755631A9D
:10699000E4049967D5172312F10097D7FF1F938757
:1069A000E79483C70700480095452303F10097D774
:1069B000FF1F83D7E793A303F100A1832304F10012
:1069C000EFF0BFDE17D6FF1F0356869297D5FF1F45
:1069D00083C5C5911755010013054589EF10B16CAA
:1069E000A1B59387F766631CF4049D67D91723123A
:1069F000F10097D7FF1F83C7678F2303F1009DC75F
:106A0000B7E70400FC4741469385412A130571000E
:106A10008297CD454800EFF05FD997D5FF1F83C51A
:106A2000E58C175501001305658761BDB7E70400C4
:106A3000BC4741468145130571008297D9BFA685A1
:106A4000280809B5011106CE22CC2DC9854717C7E4
:106A5000FF1FA30AF75A97C7FF1F2387075A37E478
:106A60000400832784179305F100130550308297A3
:106A70008347F100A9CBA30701008327441713061E
:106A8000F10085451305503082978327441717C6B8
:106A9000FF1F1306A656B54513056030829785473C
:106AA000A307F100832744171306F100854513055A
:106AB00050308297F24062440561828097C7FF1F81
:106AC000A383075449BF8327441717C6FF1F130624
